{
  "address": "0x7272924794377Dd0EF0E92c0F675beb488b32443",
  "abi": [
    {
      "inputs": [
        {
          "internalType": "string",
          "name": "_tokenName",
          "type": "string"
        },
        {
          "internalType": "string",
          "name": "_tokenSymbol",
          "type": "string"
        },
        {
          "internalType": "string",
          "name": "_metadataUri",
          "type": "string"
        },
        {
          "internalType": "address",
          "name": "_auctionHost",
          "type": "address"
        }
      ],
      "stateMutability": "nonpayable",
      "type": "constructor"
    },
    {
      "anonymous": false,
      "inputs": [
        {
          "indexed": true,
          "internalType": "address",
          "name": "owner",
          "type": "address"
        },
        {
          "indexed": true,
          "internalType": "address",
          "name": "approved",
          "type": "address"
        },
        {
          "indexed": true,
          "internalType": "uint256",
          "name": "tokenId",
          "type": "uint256"
        }
      ],
      "name": "Approval",
      "type": "event"
    },
    {
      "anonymous": false,
      "inputs": [
        {
          "indexed": true,
          "internalType": "address",
          "name": "owner",
          "type": "address"
        },
        {
          "indexed": true,
          "internalType": "address",
          "name": "operator",
          "type": "address"
        },
        {
          "indexed": false,
          "internalType": "bool",
          "name": "approved",
          "type": "bool"
        }
      ],
      "name": "ApprovalForAll",
      "type": "event"
    },
    {
      "anonymous": false,
      "inputs": [
        {
          "indexed": true,
          "internalType": "address",
          "name": "from",
          "type": "address"
        },
        {
          "indexed": true,
          "internalType": "address",
          "name": "to",
          "type": "address"
        },
        {
          "indexed": true,
          "internalType": "uint256",
          "name": "tokenId",
          "type": "uint256"
        }
      ],
      "name": "Transfer",
      "type": "event"
    },
    {
      "inputs": [
        {
          "internalType": "address",
          "name": "to",
          "type": "address"
        },
        {
          "internalType": "uint256",
          "name": "tokenId",
          "type": "uint256"
        }
      ],
      "name": "approve",
      "outputs": [],
      "stateMutability": "nonpayable",
      "type": "function"
    },
    {
      "inputs": [
        {
          "internalType": "address",
          "name": "owner",
          "type": "address"
        }
      ],
      "name": "balanceOf",
      "outputs": [
        {
          "internalType": "uint256",
          "name": "",
          "type": "uint256"
        }
      ],
      "stateMutability": "view",
      "type": "function"
    },
    {
      "inputs": [
        {
          "internalType": "uint256",
          "name": "tokenId",
          "type": "uint256"
        }
      ],
      "name": "burn",
      "outputs": [],
      "stateMutability": "nonpayable",
      "type": "function"
    },
    {
      "inputs": [
        {
          "internalType": "uint256",
          "name": "tokenId",
          "type": "uint256"
        }
      ],
      "name": "getApproved",
      "outputs": [
        {
          "internalType": "address",
          "name": "",
          "type": "address"
        }
      ],
      "stateMutability": "view",
      "type": "function"
    },
    {
      "inputs": [],
      "name": "getMetadataUri",
      "outputs": [
        {
          "internalType": "string",
          "name": "",
          "type": "string"
        }
      ],
      "stateMutability": "view",
      "type": "function"
    },
    {
      "inputs": [
        {
          "internalType": "address",
          "name": "owner",
          "type": "address"
        },
        {
          "internalType": "address",
          "name": "operator",
          "type": "address"
        }
      ],
      "name": "isApprovedForAll",
      "outputs": [
        {
          "internalType": "bool",
          "name": "",
          "type": "bool"
        }
      ],
      "stateMutability": "view",
      "type": "function"
    },
    {
      "inputs": [],
      "name": "name",
      "outputs": [
        {
          "internalType": "string",
          "name": "",
          "type": "string"
        }
      ],
      "stateMutability": "view",
      "type": "function"
    },
    {
      "inputs": [
        {
          "internalType": "uint256",
          "name": "tokenId",
          "type": "uint256"
        }
      ],
      "name": "ownerOf",
      "outputs": [
        {
          "internalType": "address",
          "name": "",
          "type": "address"
        }
      ],
      "stateMutability": "view",
      "type": "function"
    },
    {
      "inputs": [
        {
          "internalType": "address",
          "name": "from",
          "type": "address"
        },
        {
          "internalType": "address",
          "name": "to",
          "type": "address"
        },
        {
          "internalType": "uint256",
          "name": "tokenId",
          "type": "uint256"
        }
      ],
      "name": "safeTransferFrom",
      "outputs": [],
      "stateMutability": "nonpayable",
      "type": "function"
    },
    {
      "inputs": [
        {
          "internalType": "address",
          "name": "from",
          "type": "address"
        },
        {
          "internalType": "address",
          "name": "to",
          "type": "address"
        },
        {
          "internalType": "uint256",
          "name": "tokenId",
          "type": "uint256"
        },
        {
          "internalType": "bytes",
          "name": "_data",
          "type": "bytes"
        }
      ],
      "name": "safeTransferFrom",
      "outputs": [],
      "stateMutability": "nonpayable",
      "type": "function"
    },
    {
      "inputs": [
        {
          "internalType": "address",
          "name": "operator",
          "type": "address"
        },
        {
          "internalType": "bool",
          "name": "approved",
          "type": "bool"
        }
      ],
      "name": "setApprovalForAll",
      "outputs": [],
      "stateMutability": "nonpayable",
      "type": "function"
    },
    {
      "inputs": [
        {
          "internalType": "bytes4",
          "name": "interfaceId",
          "type": "bytes4"
        }
      ],
      "name": "supportsInterface",
      "outputs": [
        {
          "internalType": "bool",
          "name": "",
          "type": "bool"
        }
      ],
      "stateMutability": "view",
      "type": "function"
    },
    {
      "inputs": [],
      "name": "symbol",
      "outputs": [
        {
          "internalType": "string",
          "name": "",
          "type": "string"
        }
      ],
      "stateMutability": "view",
      "type": "function"
    },
    {
      "inputs": [
        {
          "internalType": "uint256",
          "name": "tokenId",
          "type": "uint256"
        }
      ],
      "name": "tokenURI",
      "outputs": [
        {
          "internalType": "string",
          "name": "",
          "type": "string"
        }
      ],
      "stateMutability": "view",
      "type": "function"
    },
    {
      "inputs": [
        {
          "internalType": "address",
          "name": "from",
          "type": "address"
        },
        {
          "internalType": "address",
          "name": "to",
          "type": "address"
        },
        {
          "internalType": "uint256",
          "name": "tokenId",
          "type": "uint256"
        }
      ],
      "name": "transferFrom",
      "outputs": [],
      "stateMutability": "nonpayable",
      "type": "function"
    }
  ],
  "transactionHash": "0xfc3346fa6110b4eb06a6c34a864cdfa6499224a11fca95091cd6dba161995652",
  "args": [
    "The Villa House",
    "VH",
    "https://",
    "0x2Bc52Ad01a239b166B3177Ad746dE9028dAb451f"
  ],
  "numDeployments": 1,
  "solcInputHash": "6ea010099205fa54100a43b06b87019c",
  "bytecode": "0x60806040523480156200001157600080fd5b5060405162001b0538038062001b05833981016040819052620000349162000575565b8351849084906200004d906000906020850190620003f5565b50805162000063906001906020840190620003f5565b505082516200007b91506006906020850190620003f5565b506200008933600062000093565b5050505062000715565b620000b5828260405180602001604052806000815250620000b960201b60201c565b5050565b620000c5838362000135565b620000d460008484846200027d565b620001305760405162461bcd60e51b8152602060048201526032602482015260008051602062001ae583398151915260448201527131b2b4bb32b91034b6b83632b6b2b73a32b960711b60648201526084015b60405180910390fd5b505050565b6001600160a01b0382166200018d5760405162461bcd60e51b815260206004820181905260248201527f4552433732313a206d696e7420746f20746865207a65726f2061646472657373604482015260640162000127565b6000818152600260205260409020546001600160a01b031615620001f45760405162461bcd60e51b815260206004820152601c60248201527f4552433732313a20746f6b656e20616c7265616479206d696e74656400000000604482015260640162000127565b6001600160a01b03821660009081526003602052604081208054600192906200021f90849062000628565b909155505060008181526002602052604080822080546001600160a01b0319166001600160a01b03861690811790915590518392907fddf252ad1be2c89b69c2b068fc378daa952ba7f163c4a11628f55a4df523b3ef908290a45050565b60006200029e846001600160a01b0316620003e660201b620008021760201c565b15620003da57604051630a85bd0160e11b81526001600160a01b0385169063150b7a0290620002d89033908990889088906004016200064f565b602060405180830381600087803b158015620002f357600080fd5b505af192505050801562000326575060408051601f3d908101601f191682019092526200032391810190620006a5565b60015b620003bf573d80801562000357576040519150601f19603f3d011682016040523d82523d6000602084013e6200035c565b606091505b508051620003b75760405162461bcd60e51b8152602060048201526032602482015260008051602062001ae583398151915260448201527131b2b4bb32b91034b6b83632b6b2b73a32b960711b606482015260840162000127565b805181602001fd5b6001600160e01b031916630a85bd0160e11b149050620003de565b5060015b949350505050565b6001600160a01b03163b151590565b8280546200040390620006d8565b90600052602060002090601f01602090048101928262000427576000855562000472565b82601f106200044257805160ff191683800117855562000472565b8280016001018555821562000472579182015b828111156200047257825182559160200191906001019062000455565b506200048092915062000484565b5090565b5b8082111562000480576000815560010162000485565b634e487b7160e01b600052604160045260246000fd5b60005b83811015620004ce578181015183820152602001620004b4565b83811115620004de576000848401525b50505050565b600082601f830112620004f657600080fd5b81516001600160401b03808211156200051357620005136200049b565b604051601f8301601f19908116603f011681019082821181831017156200053e576200053e6200049b565b816040528381528660208588010111156200055857600080fd5b6200056b846020830160208901620004b1565b9695505050505050565b600080600080608085870312156200058c57600080fd5b84516001600160401b0380821115620005a457600080fd5b620005b288838901620004e4565b95506020870151915080821115620005c957600080fd5b620005d788838901620004e4565b94506040870151915080821115620005ee57600080fd5b50620005fd87828801620004e4565b606087015190935090506001600160a01b03811681146200061d57600080fd5b939692955090935050565b600082198211156200064a57634e487b7160e01b600052601160045260246000fd5b500190565b600060018060a01b0380871683528086166020840152508360408301526080606083015282518060808401526200068e8160a0850160208701620004b1565b601f01601f19169190910160a00195945050505050565b600060208284031215620006b857600080fd5b81516001600160e01b031981168114620006d157600080fd5b9392505050565b600181811c90821680620006ed57607f821691505b602082108114156200070f57634e487b7160e01b600052602260045260246000fd5b50919050565b6113c080620007256000396000f3fe608060405234801561001057600080fd5b50600436106100f55760003560e01c80636352211e11610097578063a22cb46511610066578063a22cb465146101f4578063b88d4fde14610207578063c87b56dd1461021a578063e985e9c51461022d57600080fd5b80636352211e146101b057806370a08231146101c357806395d89b41146101e4578063a0bd5c40146101ec57600080fd5b8063095ea7b3116100d3578063095ea7b31461016257806323b872dd1461017757806342842e0e1461018a57806342966c681461019d57600080fd5b806301ffc9a7146100fa57806306fdde0314610122578063081812fc14610137575b600080fd5b61010d610108366004610ed0565b610269565b60405190151581526020015b60405180910390f35b61012a6102bb565b6040516101199190610f45565b61014a610145366004610f58565b61034d565b6040516001600160a01b039091168152602001610119565b610175610170366004610f8d565b6103e7565b005b610175610185366004610fb7565b6104fd565b610175610198366004610fb7565b61052f565b6101756101ab366004610f58565b61054a565b61014a6101be366004610f58565b6105c4565b6101d66101d1366004610ff3565b61063b565b604051908152602001610119565b61012a6106c2565b61012a6106d1565b61017561020236600461100e565b6106e0565b610175610215366004611060565b6106ef565b61012a610228366004610f58565b610727565b61010d61023b36600461113c565b6001600160a01b03918216600090815260056020908152604080832093909416825291909152205460ff1690565b60006001600160e01b031982166380ac58cd60e01b148061029a57506001600160e01b03198216635b5e139f60e01b145b806102b557506301ffc9a760e01b6001600160e01b03198316145b92915050565b6060600080546102ca9061116f565b80601f01602080910402602001604051908101604052809291908181526020018280546102f69061116f565b80156103435780601f1061031857610100808354040283529160200191610343565b820191906000526020600020905b81548152906001019060200180831161032657829003601f168201915b5050505050905090565b6000818152600260205260408120546001600160a01b03166103cb5760405162461bcd60e51b815260206004820152602c60248201527f4552433732313a20617070726f76656420717565727920666f72206e6f6e657860448201526b34b9ba32b73a103a37b5b2b760a11b60648201526084015b60405180910390fd5b506000908152600460205260409020546001600160a01b031690565b60006103f2826105c4565b9050806001600160a01b0316836001600160a01b031614156104605760405162461bcd60e51b815260206004820152602160248201527f4552433732313a20617070726f76616c20746f2063757272656e74206f776e656044820152603960f91b60648201526084016103c2565b336001600160a01b038216148061047c575061047c813361023b565b6104ee5760405162461bcd60e51b815260206004820152603860248201527f4552433732313a20617070726f76652063616c6c6572206973206e6f74206f7760448201527f6e6572206e6f7220617070726f76656420666f7220616c6c000000000000000060648201526084016103c2565b6104f88383610811565b505050565b610508335b8261087f565b6105245760405162461bcd60e51b81526004016103c2906111aa565b6104f8838383610976565b6104f8838383604051806020016040528060008152506106ef565b61055333610502565b6105b85760405162461bcd60e51b815260206004820152603060248201527f4552433732314275726e61626c653a2063616c6c6572206973206e6f74206f7760448201526f1b995c881b9bdc88185c1c1c9bdd995960821b60648201526084016103c2565b6105c181610b12565b50565b6000818152600260205260408120546001600160a01b0316806102b55760405162461bcd60e51b815260206004820152602960248201527f4552433732313a206f776e657220717565727920666f72206e6f6e657869737460448201526832b73a103a37b5b2b760b91b60648201526084016103c2565b60006001600160a01b0382166106a65760405162461bcd60e51b815260206004820152602a60248201527f4552433732313a2062616c616e636520717565727920666f7220746865207a65604482015269726f206164647265737360b01b60648201526084016103c2565b506001600160a01b031660009081526003602052604090205490565b6060600180546102ca9061116f565b6060600680546102ca9061116f565b6106eb338383610bad565b5050565b6106f9338361087f565b6107155760405162461bcd60e51b81526004016103c2906111aa565b61072184848484610c7c565b50505050565b6000818152600260205260409020546060906001600160a01b03166107a65760405162461bcd60e51b815260206004820152602f60248201527f4552433732314d657461646174613a2055524920717565727920666f72206e6f60448201526e3732bc34b9ba32b73a103a37b5b2b760891b60648201526084016103c2565b60006107b06106d1565b905060008151116107d057604051806020016040528060008152506107fb565b806107da84610caf565b6040516020016107eb9291906111fb565b6040516020818303038152906040525b9392505050565b6001600160a01b03163b151590565b600081815260046020526040902080546001600160a01b0319166001600160a01b0384169081179091558190610846826105c4565b6001600160a01b03167f8c5be1e5ebec7d5bd14f71427d1e84f3dd0314c0f7b2291e5b200ac8c7c3b92560405160405180910390a45050565b6000818152600260205260408120546001600160a01b03166108f85760405162461bcd60e51b815260206004820152602c60248201527f4552433732313a206f70657261746f7220717565727920666f72206e6f6e657860448201526b34b9ba32b73a103a37b5b2b760a11b60648201526084016103c2565b6000610903836105c4565b9050806001600160a01b0316846001600160a01b0316148061094a57506001600160a01b0380821660009081526005602090815260408083209388168352929052205460ff165b8061096e5750836001600160a01b03166109638461034d565b6001600160a01b0316145b949350505050565b826001600160a01b0316610989826105c4565b6001600160a01b0316146109ed5760405162461bcd60e51b815260206004820152602560248201527f4552433732313a207472616e736665722066726f6d20696e636f72726563742060448201526437bbb732b960d91b60648201526084016103c2565b6001600160a01b038216610a4f5760405162461bcd60e51b8152602060048201526024808201527f4552433732313a207472616e7366657220746f20746865207a65726f206164646044820152637265737360e01b60648201526084016103c2565b610a5a600082610811565b6001600160a01b0383166000908152600360205260408120805460019290610a83908490611240565b90915550506001600160a01b0382166000908152600360205260408120805460019290610ab1908490611257565b909155505060008181526002602052604080822080546001600160a01b0319166001600160a01b0386811691821790925591518493918716917fddf252ad1be2c89b69c2b068fc378daa952ba7f163c4a11628f55a4df523b3ef91a4505050565b6000610b1d826105c4565b9050610b2a600083610811565b6001600160a01b0381166000908152600360205260408120805460019290610b53908490611240565b909155505060008281526002602052604080822080546001600160a01b0319169055518391906001600160a01b038416907fddf252ad1be2c89b69c2b068fc378daa952ba7f163c4a11628f55a4df523b3ef908390a45050565b816001600160a01b0316836001600160a01b03161415610c0f5760405162461bcd60e51b815260206004820152601960248201527f4552433732313a20617070726f766520746f2063616c6c65720000000000000060448201526064016103c2565b6001600160a01b03838116600081815260056020908152604080832094871680845294825291829020805460ff191686151590811790915591519182527f17307eab39ab6107e8899845ad3d59bd9653f200f220920489ca2b5937696c31910160405180910390a3505050565b610c87848484610976565b610c9384848484610dad565b6107215760405162461bcd60e51b81526004016103c29061126f565b606081610cd35750506040805180820190915260018152600360fc1b602082015290565b8160005b8115610cfd5780610ce7816112c1565b9150610cf69050600a836112f2565b9150610cd7565b60008167ffffffffffffffff811115610d1857610d1861104a565b6040519080825280601f01601f191660200182016040528015610d42576020820181803683370190505b5090505b841561096e57610d57600183611240565b9150610d64600a86611306565b610d6f906030611257565b60f81b818381518110610d8457610d8461131a565b60200101906001600160f81b031916908160001a905350610da6600a866112f2565b9450610d46565b60006001600160a01b0384163b15610eaf57604051630a85bd0160e11b81526001600160a01b0385169063150b7a0290610df1903390899088908890600401611330565b602060405180830381600087803b158015610e0b57600080fd5b505af1925050508015610e3b575060408051601f3d908101601f19168201909252610e389181019061136d565b60015b610e95573d808015610e69576040519150601f19603f3d011682016040523d82523d6000602084013e610e6e565b606091505b508051610e8d5760405162461bcd60e51b81526004016103c29061126f565b805181602001fd5b6001600160e01b031916630a85bd0160e11b14905061096e565b506001949350505050565b6001600160e01b0319811681146105c157600080fd5b600060208284031215610ee257600080fd5b81356107fb81610eba565b60005b83811015610f08578181015183820152602001610ef0565b838111156107215750506000910152565b60008151808452610f31816020860160208601610eed565b601f01601f19169290920160200192915050565b6020815260006107fb6020830184610f19565b600060208284031215610f6a57600080fd5b5035919050565b80356001600160a01b0381168114610f8857600080fd5b919050565b60008060408385031215610fa057600080fd5b610fa983610f71565b946020939093013593505050565b600080600060608486031215610fcc57600080fd5b610fd584610f71565b9250610fe360208501610f71565b9150604084013590509250925092565b60006020828403121561100557600080fd5b6107fb82610f71565b6000806040838503121561102157600080fd5b61102a83610f71565b91506020830135801515811461103f57600080fd5b809150509250929050565b634e487b7160e01b600052604160045260246000fd5b6000806000806080858703121561107657600080fd5b61107f85610f71565b935061108d60208601610f71565b925060408501359150606085013567ffffffffffffffff808211156110b157600080fd5b818701915087601f8301126110c557600080fd5b8135818111156110d7576110d761104a565b604051601f8201601f19908116603f011681019083821181831017156110ff576110ff61104a565b816040528281528a602084870101111561111857600080fd5b82602086016020830137600060208483010152809550505050505092959194509250565b6000806040838503121561114f57600080fd5b61115883610f71565b915061116660208401610f71565b90509250929050565b600181811c9082168061118357607f821691505b602082108114156111a457634e487b7160e01b600052602260045260246000fd5b50919050565b60208082526031908201527f4552433732313a207472616e736665722063616c6c6572206973206e6f74206f6040820152701ddb995c881b9bdc88185c1c1c9bdd9959607a1b606082015260800190565b6000835161120d818460208801610eed565b835190830190611221818360208801610eed565b01949350505050565b634e487b7160e01b600052601160045260246000fd5b6000828210156112525761125261122a565b500390565b6000821982111561126a5761126a61122a565b500190565b60208082526032908201527f4552433732313a207472616e7366657220746f206e6f6e20455243373231526560408201527131b2b4bb32b91034b6b83632b6b2b73a32b960711b606082015260800190565b60006000198214156112d5576112d561122a565b5060010190565b634e487b7160e01b600052601260045260246000fd5b600082611301576113016112dc565b500490565b600082611315576113156112dc565b500690565b634e487b7160e01b600052603260045260246000fd5b6001600160a01b038581168252841660208201526040810183905260806060820181905260009061136390830184610f19565b9695505050505050565b60006020828403121561137f57600080fd5b81516107fb81610eba56fea2646970667358221220fe47f72f7e10a2c39c5ac84ba9e6e2915e9d37f100ca111f560e5f4c2f8a194364736f6c634300080900334552433732313a207472616e7366657220746f206e6f6e204552433732315265",
  "devdoc": {
    "kind": "dev",
    "methods": {
      "approve(address,uint256)": {
        "details": "See {IERC721-approve}."
      },
      "balanceOf(address)": {
        "details": "See {IERC721-balanceOf}."
      },
      "burn(uint256)": {
        "details": "Burns `tokenId`. See {ERC721-_burn}. Requirements: - The caller must own `tokenId` or be an approved operator."
      },
      "getApproved(uint256)": {
        "details": "See {IERC721-getApproved}."
      },
      "isApprovedForAll(address,address)": {
        "details": "See {IERC721-isApprovedForAll}."
      },
      "name()": {
        "details": "See {IERC721Metadata-name}."
      },
      "ownerOf(uint256)": {
        "details": "See {IERC721-ownerOf}."
      },
      "safeTransferFrom(address,address,uint256)": {
        "details": "See {IERC721-safeTransferFrom}."
      },
      "safeTransferFrom(address,address,uint256,bytes)": {
        "details": "See {IERC721-safeTransferFrom}."
      },
      "setApprovalForAll(address,bool)": {
        "details": "See {IERC721-setApprovalForAll}."
      },
      "supportsInterface(bytes4)": {
        "details": "See {IERC165-supportsInterface}."
      },
      "symbol()": {
        "details": "See {IERC721Metadata-symbol}."
      },
      "tokenURI(uint256)": {
        "details": "See {IERC721Metadata-tokenURI}."
      },
      "transferFrom(address,address,uint256)": {
        "details": "See {IERC721-transferFrom}."
      }
    },
    "version": 1
  },
  "userdoc": {
    "kind": "user",
    "methods": {},
    "version": 1
  },
  "storageLayout": {
    "storage": [
      {
        "astId": 993,
        "contract": "contracts/AuctionNFT.sol:AuctionNFT",
        "label": "_name",
        "offset": 0,
        "slot": "0",
        "type": "t_string_storage"
      },
      {
        "astId": 995,
        "contract": "contracts/AuctionNFT.sol:AuctionNFT",
        "label": "_symbol",
        "offset": 0,
        "slot": "1",
        "type": "t_string_storage"
      },
      {
        "astId": 999,
        "contract": "contracts/AuctionNFT.sol:AuctionNFT",
        "label": "_owners",
        "offset": 0,
        "slot": "2",
        "type": "t_mapping(t_uint256,t_address)"
      },
      {
        "astId": 1003,
        "contract": "contracts/AuctionNFT.sol:AuctionNFT",
        "label": "_balances",
        "offset": 0,
        "slot": "3",
        "type": "t_mapping(t_address,t_uint256)"
      },
      {
        "astId": 1007,
        "contract": "contracts/AuctionNFT.sol:AuctionNFT",
        "label": "_tokenApprovals",
        "offset": 0,
        "slot": "4",
        "type": "t_mapping(t_uint256,t_address)"
      },
      {
        "astId": 1013,
        "contract": "contracts/AuctionNFT.sol:AuctionNFT",
        "label": "_operatorApprovals",
        "offset": 0,
        "slot": "5",
        "type": "t_mapping(t_address,t_mapping(t_address,t_bool))"
      },
      {
        "astId": 3618,
        "contract": "contracts/AuctionNFT.sol:AuctionNFT",
        "label": "s_metadata",
        "offset": 0,
        "slot": "6",
        "type": "t_string_storage"
      }
    ],
    "types": {
      "t_address": {
        "encoding": "inplace",
        "label": "address",
        "numberOfBytes": "20"
      },
      "t_bool": {
        "encoding": "inplace",
        "label": "bool",
        "numberOfBytes": "1"
      },
      "t_mapping(t_address,t_bool)": {
        "encoding": "mapping",
        "key": "t_address",
        "label": "mapping(address => bool)",
        "numberOfBytes": "32",
        "value": "t_bool"
      },
      "t_mapping(t_address,t_mapping(t_address,t_bool))": {
        "encoding": "mapping",
        "key": "t_address",
        "label": "mapping(address => mapping(address => bool))",
        "numberOfBytes": "32",
        "value": "t_mapping(t_address,t_bool)"
      },
      "t_mapping(t_address,t_uint256)": {
        "encoding": "mapping",
        "key": "t_address",
        "label": "mapping(address => uint256)",
        "numberOfBytes": "32",
        "value": "t_uint256"
      },
      "t_mapping(t_uint256,t_address)": {
        "encoding": "mapping",
        "key": "t_uint256",
        "label": "mapping(uint256 => address)",
        "numberOfBytes": "32",
        "value": "t_address"
      },
      "t_string_storage": {
        "encoding": "bytes",
        "label": "string",
        "numberOfBytes": "32"
      },
      "t_uint256": {
        "encoding": "inplace",
        "label": "uint256",
        "numberOfBytes": "32"
      }
    }
  }
}