{
  "address": "0x07dCDD6c962eFE6DC9166C70eb3A270e7A1CBA62",
  "abi": [
    {
      "inputs": [
        {
          "internalType": "contract AuctionNFT",
          "name": "_auctionNFT",
          "type": "address"
        },
        {
          "internalType": "contract AuctionToken",
          "name": "_auctionToken",
          "type": "address"
        },
        {
          "internalType": "address",
          "name": "_auctionHost",
          "type": "address"
        },
        {
          "internalType": "string",
          "name": "_NFTName",
          "type": "string"
        },
        {
          "internalType": "address",
          "name": "_trustedForwarder",
          "type": "address"
        }
      ],
      "stateMutability": "nonpayable",
      "type": "constructor"
    },
    {
      "inputs": [],
      "name": "Auction__IsNotClosed",
      "type": "error"
    },
    {
      "inputs": [],
      "name": "Auction__NFTNotEqual",
      "type": "error"
    },
    {
      "inputs": [],
      "name": "Auction__NFTNotMinted",
      "type": "error"
    },
    {
      "inputs": [],
      "name": "Auction__NoBidders",
      "type": "error"
    },
    {
      "inputs": [],
      "name": "Auction__NoTokens",
      "type": "error"
    },
    {
      "inputs": [],
      "name": "Auction__NotAllowedToBurn",
      "type": "error"
    },
    {
      "inputs": [],
      "name": "Auction__NotInTheRegisteringState",
      "type": "error"
    },
    {
      "inputs": [],
      "name": "Auction__NotOpen",
      "type": "error"
    },
    {
      "inputs": [],
      "name": "Auction__NotTheBidPrice",
      "type": "error"
    },
    {
      "inputs": [],
      "name": "Auction__NotTheHighestBidder",
      "type": "error"
    },
    {
      "inputs": [],
      "name": "Auction__RedeemPeriodIsNotOver",
      "type": "error"
    },
    {
      "inputs": [],
      "name": "Auction__TieBid",
      "type": "error"
    },
    {
      "inputs": [],
      "name": "Auction__TimeStandsStill",
      "type": "error"
    },
    {
      "inputs": [],
      "name": "Auction__TransferFailed",
      "type": "error"
    },
    {
      "inputs": [],
      "name": "Auction__ZeroBids",
      "type": "error"
    },
    {
      "anonymous": false,
      "inputs": [],
      "name": "NewAuctionRound",
      "type": "event"
    },
    {
      "anonymous": false,
      "inputs": [
        {
          "indexed": false,
          "internalType": "address",
          "name": "_bidder",
          "type": "address"
        },
        {
          "indexed": false,
          "internalType": "uint256",
          "name": "_bid",
          "type": "uint256"
        }
      ],
      "name": "NewBid",
      "type": "event"
    },
    {
      "anonymous": false,
      "inputs": [
        {
          "indexed": false,
          "internalType": "address",
          "name": "_bidder",
          "type": "address"
        },
        {
          "indexed": true,
          "internalType": "uint256",
          "name": "_bid",
          "type": "uint256"
        }
      ],
      "name": "NewHighestBid",
      "type": "event"
    },
    {
      "anonymous": false,
      "inputs": [
        {
          "indexed": true,
          "internalType": "address",
          "name": "previousOwner",
          "type": "address"
        },
        {
          "indexed": true,
          "internalType": "address",
          "name": "newOwner",
          "type": "address"
        }
      ],
      "name": "OwnershipTransferred",
      "type": "event"
    },
    {
      "anonymous": false,
      "inputs": [
        {
          "indexed": true,
          "internalType": "address",
          "name": "_redeemer",
          "type": "address"
        }
      ],
      "name": "Sold",
      "type": "event"
    },
    {
      "inputs": [],
      "name": "MAX_REDEEM_PERIOD",
      "outputs": [
        {
          "internalType": "uint256",
          "name": "",
          "type": "uint256"
        }
      ],
      "stateMutability": "view",
      "type": "function"
    },
    {
      "inputs": [],
      "name": "endAuction",
      "outputs": [],
      "stateMutability": "nonpayable",
      "type": "function"
    },
    {
      "inputs": [],
      "name": "enter",
      "outputs": [],
      "stateMutability": "nonpayable",
      "type": "function"
    },
    {
      "inputs": [
        {
          "internalType": "address",
          "name": "forwarder",
          "type": "address"
        }
      ],
      "name": "isTrustedForwarder",
      "outputs": [
        {
          "internalType": "bool",
          "name": "",
          "type": "bool"
        }
      ],
      "stateMutability": "view",
      "type": "function"
    },
    {
      "inputs": [],
      "name": "openAuction",
      "outputs": [],
      "stateMutability": "nonpayable",
      "type": "function"
    },
    {
      "inputs": [],
      "name": "owner",
      "outputs": [
        {
          "internalType": "address",
          "name": "",
          "type": "address"
        }
      ],
      "stateMutability": "view",
      "type": "function"
    },
    {
      "inputs": [
        {
          "internalType": "uint256",
          "name": "_bid",
          "type": "uint256"
        }
      ],
      "name": "placeBid",
      "outputs": [],
      "stateMutability": "nonpayable",
      "type": "function"
    },
    {
      "inputs": [],
      "name": "redeem",
      "outputs": [],
      "stateMutability": "payable",
      "type": "function"
    },
    {
      "inputs": [],
      "name": "renounceOwnership",
      "outputs": [],
      "stateMutability": "nonpayable",
      "type": "function"
    },
    {
      "inputs": [],
      "name": "s_NFTName",
      "outputs": [
        {
          "internalType": "string",
          "name": "",
          "type": "string"
        }
      ],
      "stateMutability": "view",
      "type": "function"
    },
    {
      "inputs": [],
      "name": "s_auctionHost",
      "outputs": [
        {
          "internalType": "address",
          "name": "",
          "type": "address"
        }
      ],
      "stateMutability": "view",
      "type": "function"
    },
    {
      "inputs": [],
      "name": "s_auctionNFT",
      "outputs": [
        {
          "internalType": "contract AuctionNFT",
          "name": "",
          "type": "address"
        }
      ],
      "stateMutability": "view",
      "type": "function"
    },
    {
      "inputs": [],
      "name": "s_auctionState",
      "outputs": [
        {
          "internalType": "enum AuctionEIP2771.AuctionState",
          "name": "",
          "type": "uint8"
        }
      ],
      "stateMutability": "view",
      "type": "function"
    },
    {
      "inputs": [],
      "name": "s_auctionToken",
      "outputs": [
        {
          "internalType": "contract AuctionToken",
          "name": "",
          "type": "address"
        }
      ],
      "stateMutability": "view",
      "type": "function"
    },
    {
      "inputs": [],
      "name": "s_bidders",
      "outputs": [
        {
          "internalType": "bool",
          "name": "",
          "type": "bool"
        }
      ],
      "stateMutability": "view",
      "type": "function"
    },
    {
      "inputs": [
        {
          "internalType": "uint256",
          "name": "",
          "type": "uint256"
        }
      ],
      "name": "s_bids",
      "outputs": [
        {
          "internalType": "address",
          "name": "bidder",
          "type": "address"
        },
        {
          "internalType": "uint256",
          "name": "bid",
          "type": "uint256"
        }
      ],
      "stateMutability": "view",
      "type": "function"
    },
    {
      "inputs": [],
      "name": "s_highestBid",
      "outputs": [
        {
          "internalType": "address",
          "name": "highestBidder",
          "type": "address"
        },
        {
          "internalType": "uint256",
          "name": "highestBid",
          "type": "uint256"
        }
      ],
      "stateMutability": "view",
      "type": "function"
    },
    {
      "inputs": [],
      "name": "s_timeStart",
      "outputs": [
        {
          "internalType": "uint256",
          "name": "",
          "type": "uint256"
        }
      ],
      "stateMutability": "view",
      "type": "function"
    },
    {
      "inputs": [],
      "name": "startRegistering",
      "outputs": [],
      "stateMutability": "nonpayable",
      "type": "function"
    },
    {
      "inputs": [
        {
          "internalType": "address",
          "name": "newOwner",
          "type": "address"
        }
      ],
      "name": "transferOwnership",
      "outputs": [],
      "stateMutability": "nonpayable",
      "type": "function"
    },
    {
      "inputs": [],
      "name": "trustedForwarder",
      "outputs": [
        {
          "internalType": "address",
          "name": "",
          "type": "address"
        }
      ],
      "stateMutability": "view",
      "type": "function"
    },
    {
      "inputs": [],
      "name": "versionRecipient",
      "outputs": [
        {
          "internalType": "string",
          "name": "",
          "type": "string"
        }
      ],
      "stateMutability": "view",
      "type": "function"
    }
  ],
  "transactionHash": "0x9eaeacba041ca08f773830f148d7941495385a43f694b41b20836ec982783d56",
  "args": [
    "0x7272924794377Dd0EF0E92c0F675beb488b32443",
    "0x35f27f917C3F73DBD1015A39d0C63FecDBf43d6D",
    "0x2Bc52Ad01a239b166B3177Ad746dE9028dAb451f",
    "The Villa House",
    "0xFD4973FeB2031D4409fB57afEE5dF2051b171104"
  ],
  "numDeployments": 1,
  "solcInputHash": "6ea010099205fa54100a43b06b87019c",
  "bytecode": "0x6080604052600a805460ff191690553480156200001b57600080fd5b5060405162001a1b38038062001a1b8339810160408190526200003e9162000249565b620000526200004c620000cb565b620000e6565b600280546001600160a01b038088166001600160a01b0319928316179092556003805487841690831617905560058054928616929091169190911790558151620000a49060049060208501906200016c565b50600180546001600160a01b0319166001600160a01b0383161790555050505050620003b9565b6000620000e26200013660201b620010121760201c565b5090565b600080546001600160a01b038381166001600160a01b0319831681178455604051919092169283917f8be0079c531659141344cd1fd0a4f28419497f9722a3daafe3b4186f6b6457e09190a35050565b6000601436108015906200015457506001546001600160a01b031633145b1562000167575060131936013560601c90565b503390565b8280546200017a906200037c565b90600052602060002090601f0160209004810192826200019e5760008555620001e9565b82601f10620001b957805160ff1916838001178555620001e9565b82800160010185558215620001e9579182015b82811115620001e9578251825591602001919060010190620001cc565b50620000e29291505b80821115620000e25760008155600101620001f2565b6001600160a01b03811681146200021e57600080fd5b50565b80516200022e8162000208565b919050565b634e487b7160e01b600052604160045260246000fd5b600080600080600060a086880312156200026257600080fd5b85516200026f8162000208565b80955050602080870151620002848162000208565b6040880151909550620002978162000208565b60608801519094506001600160401b0380821115620002b557600080fd5b818901915089601f830112620002ca57600080fd5b815181811115620002df57620002df62000233565b604051601f8201601f19908116603f011681019083821181831017156200030a576200030a62000233565b816040528281528c868487010111156200032357600080fd5b600093505b8284101562000347578484018601518185018701529285019262000328565b82841115620003595760008684830101525b809750505050505050620003706080870162000221565b90509295509295909350565b600181811c908216806200039157607f821691505b60208210811415620003b357634e487b7160e01b600052602260045260246000fd5b50919050565b61165280620003c96000396000f3fe6080604052600436106101355760003560e01c80638da5cb5b116100ab578063be040fb01161006f578063be040fb014610385578063bec308521461038d578063e81a89a5146103ad578063e97dcb62146103d1578063f2fde38b146103e6578063fe67a54b1461040657600080fd5b80638da5cb5b146102d257806392524e74146102f05780639979ef451461032f578063add9b3331461034f578063b93c64001461036557600080fd5b80633fba8d7a116100fd5780633fba8d7a146101f7578063486ff0cd14610221578063572b6c051461024b57806360c1b7221461027a578063715018a61461029f5780637da0a877146102b457600080fd5b8063032b0cc11461013a57806304cb72f9146101655780630f4751e21461017c57806316b48d06146101b45780633c42d5ae146101e2575b600080fd5b34801561014657600080fd5b5061014f61041b565b60405161015c91906111d7565b60405180910390f35b34801561017157600080fd5b5061017a6104a9565b005b34801561018857600080fd5b5060055461019c906001600160a01b031681565b6040516001600160a01b03909116815260200161015c565b3480156101c057600080fd5b506001546101d590600160a01b900460ff1681565b60405161015c9190611220565b3480156101ee57600080fd5b5061017a610578565b34801561020357600080fd5b50600a546102119060ff1681565b604051901515815260200161015c565b34801561022d57600080fd5b506040805180820190915260018152603160f81b602082015261014f565b34801561025757600080fd5b50610211610266366004611248565b6001546001600160a01b0391821691161490565b34801561028657600080fd5b506102916201518081565b60405190815260200161015c565b3480156102ab57600080fd5b5061017a6107c1565b3480156102c057600080fd5b506001546001600160a01b031661019c565b3480156102de57600080fd5b506000546001600160a01b031661019c565b3480156102fc57600080fd5b5061031061030b366004611278565b610814565b604080516001600160a01b03909316835260208301919091520161015c565b34801561033b57600080fd5b5061017a61034a366004611278565b61084c565b34801561035b57600080fd5b5061029160065481565b34801561037157600080fd5b5060025461019c906001600160a01b031681565b61017a610c48565b34801561039957600080fd5b5060035461019c906001600160a01b031681565b3480156103b957600080fd5b50600854600954610310916001600160a01b03169082565b3480156103dd57600080fd5b5061017a610d89565b3480156103f257600080fd5b5061017a610401366004611248565b610e96565b34801561041257600080fd5b5061017a610f4d565b6004805461042890611291565b80601f016020809104026020016040519081016040528092919081815260200182805461045490611291565b80156104a15780601f10610476576101008083540402835291602001916104a1565b820191906000526020600020905b81548152906001019060200180831161048457829003601f168201915b505050505081565b6104b1611046565b6001600160a01b03166104cc6000546001600160a01b031690565b6001600160a01b0316146104fb5760405162461bcd60e51b81526004016104f2906112cc565b60405180910390fd5b60018054600160a01b900460ff16600281111561051a5761051a61120a565b1461053857604051633de0542760e11b815260040160405180910390fd5b600a5460ff1661055b576040516332870bef60e21b815260040160405180910390fd5b600180546002919060ff60a01b1916600160a01b835b0217905550565b610580611046565b6001600160a01b031661059b6000546001600160a01b031690565b6001600160a01b0316146105c15760405162461bcd60e51b81526004016104f2906112cc565b6006546107af576002546005546040516370a0823160e01b81526001600160a01b0391821660048201529116906370a082319060240160206040518083038186803b15801561060f57600080fd5b505afa158015610623573d6000803e3d6000fd5b505050506040513d601f19601f820116820180604052508101906106479190611301565b60011461066757604051632d62514360e11b815260040160405180910390fd5b6004604051602001610679919061131a565b60405160208183030381529060405280519060200120600260009054906101000a90046001600160a01b03166001600160a01b03166306fdde036040518163ffffffff1660e01b815260040160006040518083038186803b1580156106dd57600080fd5b505afa1580156106f1573d6000803e3d6000fd5b505050506040513d6000823e601f3d908101601f1916820160405261071991908101906113cc565b6040516020016107299190611479565b604051602081830303815290604052805190602001201461075c5760405162d81e1f60e71b815260040160405180910390fd5b6000600154600160a01b900460ff16600281111561077c5761077c61120a565b1461079a5760405163387d852b60e11b815260040160405180910390fd5b6001805460ff60a01b1916600160a01b179055565b6107b7611054565b6107bf610578565b565b6107c9611046565b6001600160a01b03166107e46000546001600160a01b031690565b6001600160a01b03161461080a5760405162461bcd60e51b81526004016104f2906112cc565b6107bf6000611115565b6007818154811061082457600080fd5b6000918252602090912060029091020180546001909101546001600160a01b03909116915082565b6002600154600160a01b900460ff16600281111561086c5761086c61120a565b1461088a57604051631195288d60e01b815260040160405180910390fd5b6003546001600160a01b03166370a082316108a3611046565b6040516001600160e01b031960e084901b1681526001600160a01b03909116600482015260240160206040518083038186803b1580156108e257600080fd5b505afa1580156108f6573d6000803e3d6000fd5b505050506040513d601f19601f8201168201806040525081019061091a9190611301565b6109375760405163382ebd6560e11b815260040160405180910390fd5b600354604051636eb1769f60e11b81523360048201523060248201526000916001600160a01b03169063dd62ed3e9060440160206040518083038186803b15801561098157600080fd5b505afa158015610995573d6000803e3d6000fd5b505050506040513d601f19601f820116820180604052508101906109b99190611301565b9050600081116109df576040516001620c804b60e41b0319815260040160405180910390fd5b60095482811415610a035760405163a7d9387960e01b815260040160405180910390fd5b60076040518060400160405280610a18611046565b6001600160a01b0390811682526020918201879052835460018082018655600095865294839020845160029092020180546001600160a01b0319169190921617815591015191015580831115610af2576040518060400160405280610a7b611046565b6001600160a01b03908116825260209182018690528251600880546001600160a01b031916919092161790550151600955827fdeda60fb6e38f55d4ccab679f50f933d04b1dca8584775216dbdac46f251ca4a610ad6611046565b6040516001600160a01b03909116815260200160405180910390a25b80831015610b45577fdd0b6c6a77960e2066c96171b4d7ac9e8b4c184011f38544afa36a5bb63ec59f610b23611046565b604080516001600160a01b039092168252602082018690520160405180910390a15b6003546040805163313ce56760e01b815290516000926001600160a01b03169163313ce567916004808301926020929190829003018186803b158015610b8a57600080fd5b505afa158015610b9e573d6000803e3d6000fd5b505050506040513d601f19601f82011682018060405250810190610bc29190611495565b90506000610bd182600a6115b4565b610bdc9060016115c3565b60035460405163079cc67960e41b8152336004820152602481018390529192506001600160a01b0316906379cc679090604401600060405180830381600087803b158015610c2957600080fd5b505af1158015610c3d573d6000803e3d6000fd5b505050505050505050565b6000610c52611046565b90506000600154600160a01b900460ff166002811115610c7457610c7461120a565b14610c925760405163387d852b60e11b815260040160405180910390fd5b6008546001600160a01b03828116911614610cc0576040516363968b8b60e01b815260040160405180910390fd5b6009543414610ce25760405163349fbd3d60e21b815260040160405180910390fd5b600254600554604051632142170760e11b81526001600160a01b0391821660048201528382166024820152600060448201529116906342842e0e90606401600060405180830381600087803b158015610d3a57600080fd5b505af1158015610d4e573d6000803e3d6000fd5b50506040516001600160a01b03841692507ffbd6287d9242307b2750fc8252314857896e312d167cdbc9eed322bae8828e009150600090a250565b60018054600160a01b900460ff166002811115610da857610da861120a565b14610dc657604051633de0542760e11b815260040160405180910390fd5b6003546000906001600160a01b031663b92a67b6610de2611046565b6040516001600160e01b031960e084901b1681526001600160a01b039091166004820152602401602060405180830381600087803b158015610e2357600080fd5b505af1158015610e37573d6000803e3d6000fd5b505050506040513d601f19601f82011682018060405250810190610e5b91906115e2565b905080610e7b5760405163034eb39360e01b815260040160405180910390fd5b600a5460ff16610e9357600a805460ff191660011790555b50565b610e9e611046565b6001600160a01b0316610eb96000546001600160a01b031690565b6001600160a01b031614610edf5760405162461bcd60e51b81526004016104f2906112cc565b6001600160a01b038116610f445760405162461bcd60e51b815260206004820152602660248201527f4f776e61626c653a206e6577206f776e657220697320746865207a65726f206160448201526564647265737360d01b60648201526084016104f2565b610e9381611115565b610f55611046565b6001600160a01b0316610f706000546001600160a01b031690565b6001600160a01b031614610f965760405162461bcd60e51b81526004016104f2906112cc565b6002600154600160a01b900460ff166002811115610fb657610fb661120a565b14610fd457604051631195288d60e01b815260040160405180910390fd5b600954610ff45760405163033d67f360e51b815260040160405180910390fd5b42600655600180546000919060ff60a01b1916600160a01b83610571565b60006014361080159061102f57506001546001600160a01b031633145b15611041575060131936013560601c90565b503390565b6000611050611012565b5090565b60065461107457604051633553558f60e01b815260040160405180910390fd5b620151806006546110859190611604565b4210156110a557604051632002e49160e11b815260040160405180910390fd5b600060068190556110b890600790611165565b600a805460ff1916905560408051808201825260008082526020909101819052600880546001600160a01b0319169055600981905590517fb29acd3a7cb5ace2405d06fbeaf3f33431934937aed74cd83be763aa291e71329190a1565b600080546001600160a01b038381166001600160a01b0319831681178455604051919092169283917f8be0079c531659141344cd1fd0a4f28419497f9722a3daafe3b4186f6b6457e09190a35050565b5080546000825560020290600052602060002090810190610e9391905b808211156110505780546001600160a01b031916815560006001820155600201611182565b60005b838110156111c25781810151838201526020016111aa565b838111156111d1576000848401525b50505050565b60208152600082518060208401526111f68160408501602087016111a7565b601f01601f19169190910160400192915050565b634e487b7160e01b600052602160045260246000fd5b602081016003831061124257634e487b7160e01b600052602160045260246000fd5b91905290565b60006020828403121561125a57600080fd5b81356001600160a01b038116811461127157600080fd5b9392505050565b60006020828403121561128a57600080fd5b5035919050565b600181811c908216806112a557607f821691505b602082108114156112c657634e487b7160e01b600052602260045260246000fd5b50919050565b6020808252818101527f4f776e61626c653a2063616c6c6572206973206e6f7420746865206f776e6572604082015260600190565b60006020828403121561131357600080fd5b5051919050565b600080835481600182811c91508083168061133657607f831692505b602080841082141561135657634e487b7160e01b86526022600452602486fd5b81801561136a576001811461137b576113a8565b60ff198616895284890196506113a8565b60008a81526020902060005b868110156113a05781548b820152908501908301611387565b505084890196505b509498975050505050505050565b634e487b7160e01b600052604160045260246000fd5b6000602082840312156113de57600080fd5b815167ffffffffffffffff808211156113f657600080fd5b818401915084601f83011261140a57600080fd5b81518181111561141c5761141c6113b6565b604051601f8201601f19908116603f01168101908382118183101715611444576114446113b6565b8160405282815287602084870101111561145d57600080fd5b61146e8360208301602088016111a7565b979650505050505050565b6000825161148b8184602087016111a7565b9190910192915050565b6000602082840312156114a757600080fd5b815160ff8116811461127157600080fd5b634e487b7160e01b600052601160045260246000fd5b600181815b808511156115095781600019048211156114ef576114ef6114b8565b808516156114fc57918102915b93841c93908002906114d3565b509250929050565b600082611520575060016115ae565b8161152d575060006115ae565b8160018114611543576002811461154d57611569565b60019150506115ae565b60ff84111561155e5761155e6114b8565b50506001821b6115ae565b5060208310610133831016604e8410600b841016171561158c575081810a6115ae565b61159683836114ce565b80600019048211156115aa576115aa6114b8565b0290505b92915050565b600061127160ff841683611511565b60008160001904831182151516156115dd576115dd6114b8565b500290565b6000602082840312156115f457600080fd5b8151801515811461127157600080fd5b60008219821115611617576116176114b8565b50019056fea2646970667358221220fc3af4731b6a8c1b3767bace4d04dcdd8f759bc731d266a8157005a6a838a25364736f6c63430008090033",
  "devdoc": {
    "kind": "dev",
    "methods": {
      "owner()": {
        "details": "Returns the address of the current owner."
      },
      "placeBid(uint256)": {
        "params": {
          "_bid": ": bid amount should be in wei "
        }
      },
      "renounceOwnership()": {
        "details": "Leaves the contract without owner. It will not be possible to call `onlyOwner` functions anymore. Can only be called by the current owner. NOTE: Renouncing ownership will leave the contract without an owner, thereby removing any functionality that is only available to the owner."
      },
      "transferOwnership(address)": {
        "details": "Transfers ownership of the contract to a new account (`newOwner`). Can only be called by the current owner."
      }
    },
    "version": 1
  },
  "userdoc": {
    "kind": "user",
    "methods": {
      "enter()": {
        "notice": "The auction contract should be authorized by the owner of token contract (dao) before transfering the tokens.  "
      },
      "isTrustedForwarder(address)": {
        "notice": "return if the forwarder is trusted to forward relayed transactions to us. the forwarder is required to verify the sender's signature, and verify the call is not a replay."
      },
      "redeem()": {
        "notice": "Auction contract must have the approval to transfer NFT User must redeem withing the time frame"
      }
    },
    "version": 1
  },
  "storageLayout": {
    "storage": [
      {
        "astId": 137,
        "contract": "contracts/Auction++/AuctionEIP2771.sol:AuctionEIP2771",
        "label": "_owner",
        "offset": 0,
        "slot": "0",
        "type": "t_address"
      },
      {
        "astId": 7,
        "contract": "contracts/Auction++/AuctionEIP2771.sol:AuctionEIP2771",
        "label": "_trustedForwarder",
        "offset": 0,
        "slot": "1",
        "type": "t_address"
      },
      {
        "astId": 2638,
        "contract": "contracts/Auction++/AuctionEIP2771.sol:AuctionEIP2771",
        "label": "s_auctionState",
        "offset": 20,
        "slot": "1",
        "type": "t_enum(AuctionState)2625"
      },
      {
        "astId": 2641,
        "contract": "contracts/Auction++/AuctionEIP2771.sol:AuctionEIP2771",
        "label": "s_auctionNFT",
        "offset": 0,
        "slot": "2",
        "type": "t_contract(AuctionNFT)3662"
      },
      {
        "astId": 2644,
        "contract": "contracts/Auction++/AuctionEIP2771.sol:AuctionEIP2771",
        "label": "s_auctionToken",
        "offset": 0,
        "slot": "3",
        "type": "t_contract(AuctionToken)3724"
      },
      {
        "astId": 2646,
        "contract": "contracts/Auction++/AuctionEIP2771.sol:AuctionEIP2771",
        "label": "s_NFTName",
        "offset": 0,
        "slot": "4",
        "type": "t_string_storage"
      },
      {
        "astId": 2648,
        "contract": "contracts/Auction++/AuctionEIP2771.sol:AuctionEIP2771",
        "label": "s_auctionHost",
        "offset": 0,
        "slot": "5",
        "type": "t_address"
      },
      {
        "astId": 2650,
        "contract": "contracts/Auction++/AuctionEIP2771.sol:AuctionEIP2771",
        "label": "s_timeStart",
        "offset": 0,
        "slot": "6",
        "type": "t_uint256"
      },
      {
        "astId": 2654,
        "contract": "contracts/Auction++/AuctionEIP2771.sol:AuctionEIP2771",
        "label": "s_bids",
        "offset": 0,
        "slot": "7",
        "type": "t_array(t_struct(Bid)2630_storage)dyn_storage"
      },
      {
        "astId": 2657,
        "contract": "contracts/Auction++/AuctionEIP2771.sol:AuctionEIP2771",
        "label": "s_highestBid",
        "offset": 0,
        "slot": "8",
        "type": "t_struct(HighestBid)2635_storage"
      },
      {
        "astId": 2660,
        "contract": "contracts/Auction++/AuctionEIP2771.sol:AuctionEIP2771",
        "label": "s_bidders",
        "offset": 0,
        "slot": "10",
        "type": "t_bool"
      }
    ],
    "types": {
      "t_address": {
        "encoding": "inplace",
        "label": "address",
        "numberOfBytes": "20"
      },
      "t_array(t_struct(Bid)2630_storage)dyn_storage": {
        "base": "t_struct(Bid)2630_storage",
        "encoding": "dynamic_array",
        "label": "struct AuctionEIP2771.Bid[]",
        "numberOfBytes": "32"
      },
      "t_bool": {
        "encoding": "inplace",
        "label": "bool",
        "numberOfBytes": "1"
      },
      "t_contract(AuctionNFT)3662": {
        "encoding": "inplace",
        "label": "contract AuctionNFT",
        "numberOfBytes": "20"
      },
      "t_contract(AuctionToken)3724": {
        "encoding": "inplace",
        "label": "contract AuctionToken",
        "numberOfBytes": "20"
      },
      "t_enum(AuctionState)2625": {
        "encoding": "inplace",
        "label": "enum AuctionEIP2771.AuctionState",
        "numberOfBytes": "1"
      },
      "t_string_storage": {
        "encoding": "bytes",
        "label": "string",
        "numberOfBytes": "32"
      },
      "t_struct(Bid)2630_storage": {
        "encoding": "inplace",
        "label": "struct AuctionEIP2771.Bid",
        "members": [
          {
            "astId": 2627,
            "contract": "contracts/Auction++/AuctionEIP2771.sol:AuctionEIP2771",
            "label": "bidder",
            "offset": 0,
            "slot": "0",
            "type": "t_address"
          },
          {
            "astId": 2629,
            "contract": "contracts/Auction++/AuctionEIP2771.sol:AuctionEIP2771",
            "label": "bid",
            "offset": 0,
            "slot": "1",
            "type": "t_uint256"
          }
        ],
        "numberOfBytes": "64"
      },
      "t_struct(HighestBid)2635_storage": {
        "encoding": "inplace",
        "label": "struct AuctionEIP2771.HighestBid",
        "members": [
          {
            "astId": 2632,
            "contract": "contracts/Auction++/AuctionEIP2771.sol:AuctionEIP2771",
            "label": "highestBidder",
            "offset": 0,
            "slot": "0",
            "type": "t_address"
          },
          {
            "astId": 2634,
            "contract": "contracts/Auction++/AuctionEIP2771.sol:AuctionEIP2771",
            "label": "highestBid",
            "offset": 0,
            "slot": "1",
            "type": "t_uint256"
          }
        ],
        "numberOfBytes": "64"
      },
      "t_uint256": {
        "encoding": "inplace",
        "label": "uint256",
        "numberOfBytes": "32"
      }
    }
  }
}