{
  "address": "0xF5fE7ee350847F5b656E2CC0dd9f75576596803b",
  "abi": [
    {
      "inputs": [
        {
          "internalType": "contract AuctionNFT",
          "name": "_auctionNFT",
          "type": "address"
        },
        {
          "internalType": "contract AuctionToken",
          "name": "_auctionToken",
          "type": "address"
        },
        {
          "internalType": "address",
          "name": "_auctionHost",
          "type": "address"
        },
        {
          "internalType": "string",
          "name": "_NFTName",
          "type": "string"
        }
      ],
      "stateMutability": "nonpayable",
      "type": "constructor"
    },
    {
      "inputs": [],
      "name": "Auction__IsNotClosed",
      "type": "error"
    },
    {
      "inputs": [],
      "name": "Auction__NFTNotEqual",
      "type": "error"
    },
    {
      "inputs": [],
      "name": "Auction__NFTNotMinted",
      "type": "error"
    },
    {
      "inputs": [],
      "name": "Auction__NoBidders",
      "type": "error"
    },
    {
      "inputs": [],
      "name": "Auction__NoTokens",
      "type": "error"
    },
    {
      "inputs": [],
      "name": "Auction__NotAllowedToBurn",
      "type": "error"
    },
    {
      "inputs": [],
      "name": "Auction__NotInTheRegisteringState",
      "type": "error"
    },
    {
      "inputs": [],
      "name": "Auction__NotOpen",
      "type": "error"
    },
    {
      "inputs": [],
      "name": "Auction__NotTheBidPrice",
      "type": "error"
    },
    {
      "inputs": [],
      "name": "Auction__NotTheHighestBidder",
      "type": "error"
    },
    {
      "inputs": [],
      "name": "Auction__RedeemPeriodIsNotOver",
      "type": "error"
    },
    {
      "inputs": [],
      "name": "Auction__TieBid",
      "type": "error"
    },
    {
      "inputs": [],
      "name": "Auction__TimeStandsStill",
      "type": "error"
    },
    {
      "inputs": [],
      "name": "Auction__TransferFailed",
      "type": "error"
    },
    {
      "inputs": [],
      "name": "Auction__ZeroBids",
      "type": "error"
    },
    {
      "anonymous": false,
      "inputs": [],
      "name": "NewAuctionRound",
      "type": "event"
    },
    {
      "anonymous": false,
      "inputs": [
        {
          "indexed": false,
          "internalType": "address",
          "name": "_bidder",
          "type": "address"
        },
        {
          "indexed": false,
          "internalType": "uint256",
          "name": "_bid",
          "type": "uint256"
        }
      ],
      "name": "NewBid",
      "type": "event"
    },
    {
      "anonymous": false,
      "inputs": [
        {
          "indexed": false,
          "internalType": "address",
          "name": "_bidder",
          "type": "address"
        },
        {
          "indexed": true,
          "internalType": "uint256",
          "name": "_bid",
          "type": "uint256"
        }
      ],
      "name": "NewHighestBid",
      "type": "event"
    },
    {
      "anonymous": false,
      "inputs": [
        {
          "indexed": true,
          "internalType": "address",
          "name": "previousOwner",
          "type": "address"
        },
        {
          "indexed": true,
          "internalType": "address",
          "name": "newOwner",
          "type": "address"
        }
      ],
      "name": "OwnershipTransferred",
      "type": "event"
    },
    {
      "anonymous": false,
      "inputs": [
        {
          "indexed": true,
          "internalType": "address",
          "name": "_redeemer",
          "type": "address"
        }
      ],
      "name": "Sold",
      "type": "event"
    },
    {
      "inputs": [],
      "name": "MAX_REDEEM_PERIOD",
      "outputs": [
        {
          "internalType": "uint256",
          "name": "",
          "type": "uint256"
        }
      ],
      "stateMutability": "view",
      "type": "function"
    },
    {
      "inputs": [],
      "name": "endAuction",
      "outputs": [],
      "stateMutability": "nonpayable",
      "type": "function"
    },
    {
      "inputs": [],
      "name": "enter",
      "outputs": [],
      "stateMutability": "nonpayable",
      "type": "function"
    },
    {
      "inputs": [],
      "name": "openAuction",
      "outputs": [],
      "stateMutability": "nonpayable",
      "type": "function"
    },
    {
      "inputs": [],
      "name": "owner",
      "outputs": [
        {
          "internalType": "address",
          "name": "",
          "type": "address"
        }
      ],
      "stateMutability": "view",
      "type": "function"
    },
    {
      "inputs": [
        {
          "internalType": "uint256",
          "name": "_bid",
          "type": "uint256"
        }
      ],
      "name": "placeBid",
      "outputs": [],
      "stateMutability": "nonpayable",
      "type": "function"
    },
    {
      "inputs": [],
      "name": "redeem",
      "outputs": [],
      "stateMutability": "payable",
      "type": "function"
    },
    {
      "inputs": [],
      "name": "renounceOwnership",
      "outputs": [],
      "stateMutability": "nonpayable",
      "type": "function"
    },
    {
      "inputs": [],
      "name": "s_NFTName",
      "outputs": [
        {
          "internalType": "string",
          "name": "",
          "type": "string"
        }
      ],
      "stateMutability": "view",
      "type": "function"
    },
    {
      "inputs": [],
      "name": "s_auctionHost",
      "outputs": [
        {
          "internalType": "address",
          "name": "",
          "type": "address"
        }
      ],
      "stateMutability": "view",
      "type": "function"
    },
    {
      "inputs": [],
      "name": "s_auctionNFT",
      "outputs": [
        {
          "internalType": "contract AuctionNFT",
          "name": "",
          "type": "address"
        }
      ],
      "stateMutability": "view",
      "type": "function"
    },
    {
      "inputs": [],
      "name": "s_auctionState",
      "outputs": [
        {
          "internalType": "enum Auction.AuctionState",
          "name": "",
          "type": "uint8"
        }
      ],
      "stateMutability": "view",
      "type": "function"
    },
    {
      "inputs": [],
      "name": "s_auctionToken",
      "outputs": [
        {
          "internalType": "contract AuctionToken",
          "name": "",
          "type": "address"
        }
      ],
      "stateMutability": "view",
      "type": "function"
    },
    {
      "inputs": [],
      "name": "s_bidders",
      "outputs": [
        {
          "internalType": "bool",
          "name": "",
          "type": "bool"
        }
      ],
      "stateMutability": "view",
      "type": "function"
    },
    {
      "inputs": [
        {
          "internalType": "uint256",
          "name": "",
          "type": "uint256"
        }
      ],
      "name": "s_bids",
      "outputs": [
        {
          "internalType": "address",
          "name": "bidder",
          "type": "address"
        },
        {
          "internalType": "uint256",
          "name": "bid",
          "type": "uint256"
        }
      ],
      "stateMutability": "view",
      "type": "function"
    },
    {
      "inputs": [],
      "name": "s_highestBid",
      "outputs": [
        {
          "internalType": "address",
          "name": "highestBidder",
          "type": "address"
        },
        {
          "internalType": "uint256",
          "name": "highestBid",
          "type": "uint256"
        }
      ],
      "stateMutability": "view",
      "type": "function"
    },
    {
      "inputs": [],
      "name": "s_timeStart",
      "outputs": [
        {
          "internalType": "uint256",
          "name": "",
          "type": "uint256"
        }
      ],
      "stateMutability": "view",
      "type": "function"
    },
    {
      "inputs": [],
      "name": "startRegistering",
      "outputs": [],
      "stateMutability": "nonpayable",
      "type": "function"
    },
    {
      "inputs": [
        {
          "internalType": "address",
          "name": "newOwner",
          "type": "address"
        }
      ],
      "name": "transferOwnership",
      "outputs": [],
      "stateMutability": "nonpayable",
      "type": "function"
    }
  ],
  "transactionHash": "0x8cbdc4b68bf0960669b81b746ad3aceff050c1363d5328ae883e9af004a23400",
  "args": [
    "0x7272924794377Dd0EF0E92c0F675beb488b32443",
    "0x35f27f917C3F73DBD1015A39d0C63FecDBf43d6D",
    "0x2Bc52Ad01a239b166B3177Ad746dE9028dAb451f",
    "The Villa House"
  ],
  "numDeployments": 1,
  "solcInputHash": "6ea010099205fa54100a43b06b87019c",
  "bytecode": "0x60806040526009805460ff191690553480156200001b57600080fd5b50604051620017df380380620017df8339810160408190526200003e91620001cb565b6200004933620000a6565b600180546001600160a01b038087166001600160a01b03199283161790925560028054868416908316179055600480549285169290911691909117905580516200009b906003906020840190620000f6565b505050505062000326565b600080546001600160a01b038381166001600160a01b0319831681178455604051919092169283917f8be0079c531659141344cd1fd0a4f28419497f9722a3daafe3b4186f6b6457e09190a35050565b8280546200010490620002e9565b90600052602060002090601f01602090048101928262000128576000855562000173565b82601f106200014357805160ff191683800117855562000173565b8280016001018555821562000173579182015b828111156200017357825182559160200191906001019062000156565b506200018192915062000185565b5090565b5b8082111562000181576000815560010162000186565b6001600160a01b0381168114620001b257600080fd5b50565b634e487b7160e01b600052604160045260246000fd5b60008060008060808587031215620001e257600080fd5b8451620001ef816200019c565b8094505060208086015162000204816200019c565b604087015190945062000217816200019c565b60608701519093506001600160401b03808211156200023557600080fd5b818801915088601f8301126200024a57600080fd5b8151818111156200025f576200025f620001b5565b604051601f8201601f19908116603f011681019083821181831017156200028a576200028a620001b5565b816040528281528b86848701011115620002a357600080fd5b600093505b82841015620002c75784840186015181850187015292850192620002a8565b82841115620002d95760008684830101525b989b979a50959850505050505050565b600181811c90821680620002fe57607f821691505b602082108114156200032057634e487b7160e01b600052602260045260246000fd5b50919050565b6114a980620003366000396000f3fe6080604052600436106101145760003560e01c806392524e74116100a0578063bec3085211610064578063bec30852146102f5578063e81a89a514610315578063e97dcb6214610339578063f2fde38b1461034e578063fe67a54b1461036e57600080fd5b806392524e74146102585780639979ef4514610297578063add9b333146102b7578063b93c6400146102cd578063be040fb0146102ed57600080fd5b80633c42d5ae116100e75780633c42d5ae146101c15780633fba8d7a146101d657806360c1b72214610200578063715018a6146102255780638da5cb5b1461023a57600080fd5b8063032b0cc11461011957806304cb72f9146101445780630f4751e21461015b57806316b48d0614610193575b600080fd5b34801561012557600080fd5b5061012e610383565b60405161013b919061102e565b60405180910390f35b34801561015057600080fd5b50610159610411565b005b34801561016757600080fd5b5060045461017b906001600160a01b031681565b6040516001600160a01b03909116815260200161013b565b34801561019f57600080fd5b506000546101b490600160a01b900460ff1681565b60405161013b9190611077565b3480156101cd57600080fd5b506101596104c2565b3480156101e257600080fd5b506009546101f09060ff1681565b604051901515815260200161013b565b34801561020c57600080fd5b506102176201518081565b60405190815260200161013b565b34801561023157600080fd5b506101596106ef565b34801561024657600080fd5b506000546001600160a01b031661017b565b34801561026457600080fd5b5061027861027336600461109f565b610723565b604080516001600160a01b03909316835260208301919091520161013b565b3480156102a357600080fd5b506101596102b236600461109f565b61075b565b3480156102c357600080fd5b5061021760055481565b3480156102d957600080fd5b5060015461017b906001600160a01b031681565b610159610b3b565b34801561030157600080fd5b5060025461017b906001600160a01b031681565b34801561032157600080fd5b50600754600854610278916001600160a01b03169082565b34801561034557600080fd5b50610159610c74565b34801561035a57600080fd5b506101596103693660046110b8565b610d6b565b34801561037a57600080fd5b50610159610e03565b60038054610390906110e8565b80601f01602080910402602001604051908101604052809291908181526020018280546103bc906110e8565b80156104095780601f106103de57610100808354040283529160200191610409565b820191906000526020600020905b8154815290600101906020018083116103ec57829003601f168201915b505050505081565b6000546001600160a01b031633146104445760405162461bcd60e51b815260040161043b90611123565b60405180910390fd5b6001600054600160a01b900460ff16600281111561046457610464611061565b1461048257604051633de0542760e11b815260040160405180910390fd5b60095460ff166104a5576040516332870bef60e21b815260040160405180910390fd5b600080546002919060ff60a01b1916600160a01b835b0217905550565b6000546001600160a01b031633146104ec5760405162461bcd60e51b815260040161043b90611123565b6005546106dd57600154600480546040516370a0823160e01b81526001600160a01b0391821692810192909252909116906370a082319060240160206040518083038186803b15801561053e57600080fd5b505afa158015610552573d6000803e3d6000fd5b505050506040513d601f19601f820116820180604052508101906105769190611158565b60011461059657604051632d62514360e11b815260040160405180910390fd5b60036040516020016105a89190611171565b60405160208183030381529060405280519060200120600160009054906101000a90046001600160a01b03166001600160a01b03166306fdde036040518163ffffffff1660e01b815260040160006040518083038186803b15801561060c57600080fd5b505afa158015610620573d6000803e3d6000fd5b505050506040513d6000823e601f3d908101601f191682016040526106489190810190611223565b60405160200161065891906112d0565b604051602081830303815290604052805190602001201461068b5760405162d81e1f60e71b815260040160405180910390fd5b60008054600160a01b900460ff1660028111156106aa576106aa611061565b146106c85760405163387d852b60e11b815260040160405180910390fd5b6000805460ff60a01b1916600160a01b179055565b6106e5610ea7565b6106ed6104c2565b565b6000546001600160a01b031633146107195760405162461bcd60e51b815260040161043b90611123565b6106ed6000610f68565b6006818154811061073357600080fd5b6000918252602090912060029091020180546001909101546001600160a01b03909116915082565b6002600054600160a01b900460ff16600281111561077b5761077b611061565b1461079957604051631195288d60e01b815260040160405180910390fd5b6002546040516370a0823160e01b81523360048201526001600160a01b03909116906370a082319060240160206040518083038186803b1580156107dc57600080fd5b505afa1580156107f0573d6000803e3d6000fd5b505050506040513d601f19601f820116820180604052508101906108149190611158565b6108315760405163382ebd6560e11b815260040160405180910390fd5b600254604051636eb1769f60e11b81523360048201523060248201526000916001600160a01b03169063dd62ed3e9060440160206040518083038186803b15801561087b57600080fd5b505afa15801561088f573d6000803e3d6000fd5b505050506040513d601f19601f820116820180604052508101906108b39190611158565b9050600081116108d9576040516001620c804b60e41b0319815260040160405180910390fd5b600854828114156108fd5760405163a7d9387960e01b815260040160405180910390fd5b60408051808201909152338152602081018481526006805460018101825560009190915291517ff652222313e28459528d920b65115c16c04f3efc82aaedc97be59f3f377c0d3f600290930292830180546001600160a01b0319166001600160a01b03909216919091179055517ff652222313e28459528d920b65115c16c04f3efc82aaedc97be59f3f377c0d4090910155808311156109f657604080518082018252338082526020918201869052600780546001600160a01b031916821790556008869055915191825284917fdeda60fb6e38f55d4ccab679f50f933d04b1dca8584775216dbdac46f251ca4a910160405180910390a25b80831015610a385760408051338152602081018590527fdd0b6c6a77960e2066c96171b4d7ac9e8b4c184011f38544afa36a5bb63ec59f910160405180910390a15b6002546040805163313ce56760e01b815290516000926001600160a01b03169163313ce567916004808301926020929190829003018186803b158015610a7d57600080fd5b505afa158015610a91573d6000803e3d6000fd5b505050506040513d601f19601f82011682018060405250810190610ab591906112ec565b90506000610ac482600a61140b565b610acf90600161141a565b60025460405163079cc67960e41b8152336004820152602481018390529192506001600160a01b0316906379cc679090604401600060405180830381600087803b158015610b1c57600080fd5b505af1158015610b30573d6000803e3d6000fd5b505050505050505050565b3360008054600160a01b900460ff166002811115610b5b57610b5b611061565b14610b795760405163387d852b60e11b815260040160405180910390fd5b6007546001600160a01b03828116911614610ba7576040516363968b8b60e01b815260040160405180910390fd5b6008543414610bc95760405163349fbd3d60e21b815260040160405180910390fd5b60015460048054604051632142170760e11b81526001600160a01b0391821692810192909252838116602483015260006044830152909116906342842e0e90606401600060405180830381600087803b158015610c2557600080fd5b505af1158015610c39573d6000803e3d6000fd5b50506040516001600160a01b03841692507ffbd6287d9242307b2750fc8252314857896e312d167cdbc9eed322bae8828e009150600090a250565b6001600054600160a01b900460ff166002811115610c9457610c94611061565b14610cb257604051633de0542760e11b815260040160405180910390fd5b600254604051635c9533db60e11b81523360048201526000916001600160a01b03169063b92a67b690602401602060405180830381600087803b158015610cf857600080fd5b505af1158015610d0c573d6000803e3d6000fd5b505050506040513d601f19601f82011682018060405250810190610d309190611439565b905080610d505760405163034eb39360e01b815260040160405180910390fd5b60095460ff16610d68576009805460ff191660011790555b50565b6000546001600160a01b03163314610d955760405162461bcd60e51b815260040161043b90611123565b6001600160a01b038116610dfa5760405162461bcd60e51b815260206004820152602660248201527f4f776e61626c653a206e6577206f776e657220697320746865207a65726f206160448201526564647265737360d01b606482015260840161043b565b610d6881610f68565b6000546001600160a01b03163314610e2d5760405162461bcd60e51b815260040161043b90611123565b6002600054600160a01b900460ff166002811115610e4d57610e4d611061565b14610e6b57604051631195288d60e01b815260040160405180910390fd5b600854610e8b5760405163033d67f360e51b815260040160405180910390fd5b4260055560008054819060ff60a01b1916600160a01b826104bb565b600554610ec757604051633553558f60e01b815260040160405180910390fd5b62015180600554610ed8919061145b565b421015610ef857604051632002e49160e11b815260040160405180910390fd5b60006005819055610f0b90600690610fb8565b6009805460ff1916905560408051808201825260008082526020909101819052600780546001600160a01b0319169055600881905590517fb29acd3a7cb5ace2405d06fbeaf3f33431934937aed74cd83be763aa291e71329190a1565b600080546001600160a01b038381166001600160a01b0319831681178455604051919092169283917f8be0079c531659141344cd1fd0a4f28419497f9722a3daafe3b4186f6b6457e09190a35050565b5080546000825560020290600052602060002090810190610d6891905b80821115610ffa5780546001600160a01b031916815560006001820155600201610fd5565b5090565b60005b83811015611019578181015183820152602001611001565b83811115611028576000848401525b50505050565b602081526000825180602084015261104d816040850160208701610ffe565b601f01601f19169190910160400192915050565b634e487b7160e01b600052602160045260246000fd5b602081016003831061109957634e487b7160e01b600052602160045260246000fd5b91905290565b6000602082840312156110b157600080fd5b5035919050565b6000602082840312156110ca57600080fd5b81356001600160a01b03811681146110e157600080fd5b9392505050565b600181811c908216806110fc57607f821691505b6020821081141561111d57634e487b7160e01b600052602260045260246000fd5b50919050565b6020808252818101527f4f776e61626c653a2063616c6c6572206973206e6f7420746865206f776e6572604082015260600190565b60006020828403121561116a57600080fd5b5051919050565b600080835481600182811c91508083168061118d57607f831692505b60208084108214156111ad57634e487b7160e01b86526022600452602486fd5b8180156111c157600181146111d2576111ff565b60ff198616895284890196506111ff565b60008a81526020902060005b868110156111f75781548b8201529085019083016111de565b505084890196505b509498975050505050505050565b634e487b7160e01b600052604160045260246000fd5b60006020828403121561123557600080fd5b815167ffffffffffffffff8082111561124d57600080fd5b818401915084601f83011261126157600080fd5b8151818111156112735761127361120d565b604051601f8201601f19908116603f0116810190838211818310171561129b5761129b61120d565b816040528281528760208487010111156112b457600080fd5b6112c5836020830160208801610ffe565b979650505050505050565b600082516112e2818460208701610ffe565b9190910192915050565b6000602082840312156112fe57600080fd5b815160ff811681146110e157600080fd5b634e487b7160e01b600052601160045260246000fd5b600181815b808511156113605781600019048211156113465761134661130f565b8085161561135357918102915b93841c939080029061132a565b509250929050565b60008261137757506001611405565b8161138457506000611405565b816001811461139a57600281146113a4576113c0565b6001915050611405565b60ff8411156113b5576113b561130f565b50506001821b611405565b5060208310610133831016604e8410600b84101617156113e3575081810a611405565b6113ed8383611325565b80600019048211156114015761140161130f565b0290505b92915050565b60006110e160ff841683611368565b60008160001904831182151516156114345761143461130f565b500290565b60006020828403121561144b57600080fd5b815180151581146110e157600080fd5b6000821982111561146e5761146e61130f565b50019056fea2646970667358221220d8eee65539f8133a71b153cc4ea0ceed2ee29d34e5ef3dce515438fb8d9ff7a664736f6c63430008090033",
  "devdoc": {
    "kind": "dev",
    "methods": {
      "owner()": {
        "details": "Returns the address of the current owner."
      },
      "placeBid(uint256)": {
        "params": {
          "_bid": ": bid amount should be in wei "
        }
      },
      "renounceOwnership()": {
        "details": "Leaves the contract without owner. It will not be possible to call `onlyOwner` functions anymore. Can only be called by the current owner. NOTE: Renouncing ownership will leave the contract without an owner, thereby removing any functionality that is only available to the owner."
      },
      "transferOwnership(address)": {
        "details": "Transfers ownership of the contract to a new account (`newOwner`). Can only be called by the current owner."
      }
    },
    "version": 1
  },
  "userdoc": {
    "kind": "user",
    "methods": {
      "enter()": {
        "notice": "The auction contract should be authorized by the owner of token contract (dao) before transfering the tokens.  "
      },
      "redeem()": {
        "notice": "Auction contract must have the approval to transfer NFT User must redeem withing the time frame"
      }
    },
    "version": 1
  },
  "storageLayout": {
    "storage": [
      {
        "astId": 137,
        "contract": "contracts/Auction.sol:Auction",
        "label": "_owner",
        "offset": 0,
        "slot": "0",
        "type": "t_address"
      },
      {
        "astId": 3172,
        "contract": "contracts/Auction.sol:Auction",
        "label": "s_auctionState",
        "offset": 20,
        "slot": "0",
        "type": "t_enum(AuctionState)3159"
      },
      {
        "astId": 3175,
        "contract": "contracts/Auction.sol:Auction",
        "label": "s_auctionNFT",
        "offset": 0,
        "slot": "1",
        "type": "t_contract(AuctionNFT)3662"
      },
      {
        "astId": 3178,
        "contract": "contracts/Auction.sol:Auction",
        "label": "s_auctionToken",
        "offset": 0,
        "slot": "2",
        "type": "t_contract(AuctionToken)3724"
      },
      {
        "astId": 3180,
        "contract": "contracts/Auction.sol:Auction",
        "label": "s_NFTName",
        "offset": 0,
        "slot": "3",
        "type": "t_string_storage"
      },
      {
        "astId": 3182,
        "contract": "contracts/Auction.sol:Auction",
        "label": "s_auctionHost",
        "offset": 0,
        "slot": "4",
        "type": "t_address"
      },
      {
        "astId": 3184,
        "contract": "contracts/Auction.sol:Auction",
        "label": "s_timeStart",
        "offset": 0,
        "slot": "5",
        "type": "t_uint256"
      },
      {
        "astId": 3188,
        "contract": "contracts/Auction.sol:Auction",
        "label": "s_bids",
        "offset": 0,
        "slot": "6",
        "type": "t_array(t_struct(Bid)3164_storage)dyn_storage"
      },
      {
        "astId": 3191,
        "contract": "contracts/Auction.sol:Auction",
        "label": "s_highestBid",
        "offset": 0,
        "slot": "7",
        "type": "t_struct(HighestBid)3169_storage"
      },
      {
        "astId": 3194,
        "contract": "contracts/Auction.sol:Auction",
        "label": "s_bidders",
        "offset": 0,
        "slot": "9",
        "type": "t_bool"
      }
    ],
    "types": {
      "t_address": {
        "encoding": "inplace",
        "label": "address",
        "numberOfBytes": "20"
      },
      "t_array(t_struct(Bid)3164_storage)dyn_storage": {
        "base": "t_struct(Bid)3164_storage",
        "encoding": "dynamic_array",
        "label": "struct Auction.Bid[]",
        "numberOfBytes": "32"
      },
      "t_bool": {
        "encoding": "inplace",
        "label": "bool",
        "numberOfBytes": "1"
      },
      "t_contract(AuctionNFT)3662": {
        "encoding": "inplace",
        "label": "contract AuctionNFT",
        "numberOfBytes": "20"
      },
      "t_contract(AuctionToken)3724": {
        "encoding": "inplace",
        "label": "contract AuctionToken",
        "numberOfBytes": "20"
      },
      "t_enum(AuctionState)3159": {
        "encoding": "inplace",
        "label": "enum Auction.AuctionState",
        "numberOfBytes": "1"
      },
      "t_string_storage": {
        "encoding": "bytes",
        "label": "string",
        "numberOfBytes": "32"
      },
      "t_struct(Bid)3164_storage": {
        "encoding": "inplace",
        "label": "struct Auction.Bid",
        "members": [
          {
            "astId": 3161,
            "contract": "contracts/Auction.sol:Auction",
            "label": "bidder",
            "offset": 0,
            "slot": "0",
            "type": "t_address"
          },
          {
            "astId": 3163,
            "contract": "contracts/Auction.sol:Auction",
            "label": "bid",
            "offset": 0,
            "slot": "1",
            "type": "t_uint256"
          }
        ],
        "numberOfBytes": "64"
      },
      "t_struct(HighestBid)3169_storage": {
        "encoding": "inplace",
        "label": "struct Auction.HighestBid",
        "members": [
          {
            "astId": 3166,
            "contract": "contracts/Auction.sol:Auction",
            "label": "highestBidder",
            "offset": 0,
            "slot": "0",
            "type": "t_address"
          },
          {
            "astId": 3168,
            "contract": "contracts/Auction.sol:Auction",
            "label": "highestBid",
            "offset": 0,
            "slot": "1",
            "type": "t_uint256"
          }
        ],
        "numberOfBytes": "64"
      },
      "t_uint256": {
        "encoding": "inplace",
        "label": "uint256",
        "numberOfBytes": "32"
      }
    }
  }
}