{
  "address": "0x47410f30162FE970A50F07Ffd9aBF240f44F0812",
  "abi": [
    {
      "inputs": [
        {
          "internalType": "contract AuctionNFT",
          "name": "_auctionNFT",
          "type": "address"
        },
        {
          "internalType": "contract AuctionToken",
          "name": "_auctionToken",
          "type": "address"
        },
        {
          "internalType": "address",
          "name": "_auctionHost",
          "type": "address"
        },
        {
          "internalType": "string",
          "name": "_NFTName",
          "type": "string"
        }
      ],
      "stateMutability": "nonpayable",
      "type": "constructor"
    },
    {
      "inputs": [],
      "name": "Auction__IsNotClosed",
      "type": "error"
    },
    {
      "inputs": [],
      "name": "Auction__NFTNotEqual",
      "type": "error"
    },
    {
      "inputs": [],
      "name": "Auction__NFTNotMinted",
      "type": "error"
    },
    {
      "inputs": [],
      "name": "Auction__NoBidders",
      "type": "error"
    },
    {
      "inputs": [],
      "name": "Auction__NoTokens",
      "type": "error"
    },
    {
      "inputs": [],
      "name": "Auction__NotAllowedToBurn",
      "type": "error"
    },
    {
      "inputs": [],
      "name": "Auction__NotInTheRegisteringState",
      "type": "error"
    },
    {
      "inputs": [],
      "name": "Auction__NotOpen",
      "type": "error"
    },
    {
      "inputs": [],
      "name": "Auction__NotTheBidPrice",
      "type": "error"
    },
    {
      "inputs": [],
      "name": "Auction__NotTheHighestBidder",
      "type": "error"
    },
    {
      "inputs": [],
      "name": "Auction__RedeemPeriodIsNotOver",
      "type": "error"
    },
    {
      "inputs": [],
      "name": "Auction__TieBid",
      "type": "error"
    },
    {
      "inputs": [],
      "name": "Auction__TimeStandsStill",
      "type": "error"
    },
    {
      "inputs": [],
      "name": "Auction__TransferFailed",
      "type": "error"
    },
    {
      "inputs": [],
      "name": "Auction__ZeroBids",
      "type": "error"
    },
    {
      "anonymous": false,
      "inputs": [],
      "name": "NewAuctionRound",
      "type": "event"
    },
    {
      "anonymous": false,
      "inputs": [
        {
          "indexed": false,
          "internalType": "address",
          "name": "_bidder",
          "type": "address"
        },
        {
          "indexed": false,
          "internalType": "uint256",
          "name": "_bid",
          "type": "uint256"
        }
      ],
      "name": "NewBid",
      "type": "event"
    },
    {
      "anonymous": false,
      "inputs": [
        {
          "indexed": false,
          "internalType": "address",
          "name": "_bidder",
          "type": "address"
        },
        {
          "indexed": true,
          "internalType": "uint256",
          "name": "_bid",
          "type": "uint256"
        }
      ],
      "name": "NewHighestBid",
      "type": "event"
    },
    {
      "anonymous": false,
      "inputs": [
        {
          "indexed": true,
          "internalType": "address",
          "name": "previousOwner",
          "type": "address"
        },
        {
          "indexed": true,
          "internalType": "address",
          "name": "newOwner",
          "type": "address"
        }
      ],
      "name": "OwnershipTransferred",
      "type": "event"
    },
    {
      "anonymous": false,
      "inputs": [
        {
          "indexed": true,
          "internalType": "address",
          "name": "_redeemer",
          "type": "address"
        }
      ],
      "name": "Sold",
      "type": "event"
    },
    {
      "inputs": [],
      "name": "MAX_REDEEM_PERIOD",
      "outputs": [
        {
          "internalType": "uint256",
          "name": "",
          "type": "uint256"
        }
      ],
      "stateMutability": "view",
      "type": "function"
    },
    {
      "inputs": [],
      "name": "endAuction",
      "outputs": [],
      "stateMutability": "nonpayable",
      "type": "function"
    },
    {
      "inputs": [],
      "name": "enter",
      "outputs": [],
      "stateMutability": "nonpayable",
      "type": "function"
    },
    {
      "inputs": [],
      "name": "openAuction",
      "outputs": [],
      "stateMutability": "nonpayable",
      "type": "function"
    },
    {
      "inputs": [],
      "name": "owner",
      "outputs": [
        {
          "internalType": "address",
          "name": "",
          "type": "address"
        }
      ],
      "stateMutability": "view",
      "type": "function"
    },
    {
      "inputs": [
        {
          "internalType": "uint256",
          "name": "_bid",
          "type": "uint256"
        }
      ],
      "name": "placeBid",
      "outputs": [],
      "stateMutability": "nonpayable",
      "type": "function"
    },
    {
      "inputs": [],
      "name": "redeem",
      "outputs": [],
      "stateMutability": "payable",
      "type": "function"
    },
    {
      "inputs": [],
      "name": "renounceOwnership",
      "outputs": [],
      "stateMutability": "nonpayable",
      "type": "function"
    },
    {
      "inputs": [],
      "name": "s_NFTName",
      "outputs": [
        {
          "internalType": "string",
          "name": "",
          "type": "string"
        }
      ],
      "stateMutability": "view",
      "type": "function"
    },
    {
      "inputs": [],
      "name": "s_auctionHost",
      "outputs": [
        {
          "internalType": "address",
          "name": "",
          "type": "address"
        }
      ],
      "stateMutability": "view",
      "type": "function"
    },
    {
      "inputs": [],
      "name": "s_auctionNFT",
      "outputs": [
        {
          "internalType": "contract AuctionNFT",
          "name": "",
          "type": "address"
        }
      ],
      "stateMutability": "view",
      "type": "function"
    },
    {
      "inputs": [],
      "name": "s_auctionState",
      "outputs": [
        {
          "internalType": "enum Auction.AuctionState",
          "name": "",
          "type": "uint8"
        }
      ],
      "stateMutability": "view",
      "type": "function"
    },
    {
      "inputs": [],
      "name": "s_auctionToken",
      "outputs": [
        {
          "internalType": "contract AuctionToken",
          "name": "",
          "type": "address"
        }
      ],
      "stateMutability": "view",
      "type": "function"
    },
    {
      "inputs": [],
      "name": "s_bidders",
      "outputs": [
        {
          "internalType": "bool",
          "name": "",
          "type": "bool"
        }
      ],
      "stateMutability": "view",
      "type": "function"
    },
    {
      "inputs": [
        {
          "internalType": "uint256",
          "name": "",
          "type": "uint256"
        }
      ],
      "name": "s_bids",
      "outputs": [
        {
          "internalType": "address",
          "name": "bidder",
          "type": "address"
        },
        {
          "internalType": "uint256",
          "name": "bid",
          "type": "uint256"
        }
      ],
      "stateMutability": "view",
      "type": "function"
    },
    {
      "inputs": [],
      "name": "s_highestBid",
      "outputs": [
        {
          "internalType": "address",
          "name": "highestBidder",
          "type": "address"
        },
        {
          "internalType": "uint256",
          "name": "highestBid",
          "type": "uint256"
        }
      ],
      "stateMutability": "view",
      "type": "function"
    },
    {
      "inputs": [],
      "name": "s_timeStart",
      "outputs": [
        {
          "internalType": "uint256",
          "name": "",
          "type": "uint256"
        }
      ],
      "stateMutability": "view",
      "type": "function"
    },
    {
      "inputs": [],
      "name": "startRegistering",
      "outputs": [],
      "stateMutability": "nonpayable",
      "type": "function"
    },
    {
      "inputs": [
        {
          "internalType": "address",
          "name": "newOwner",
          "type": "address"
        }
      ],
      "name": "transferOwnership",
      "outputs": [],
      "stateMutability": "nonpayable",
      "type": "function"
    },
    {
      "inputs": [],
      "name": "withdraw",
      "outputs": [],
      "stateMutability": "nonpayable",
      "type": "function"
    }
  ],
  "transactionHash": "0x9413249254ff76ef5342749bfc4ce65a8713d0240b3a367d1b6fea0a1959e062",
  "args": [
    "0x7272924794377Dd0EF0E92c0F675beb488b32443",
    "0x35f27f917C3F73DBD1015A39d0C63FecDBf43d6D",
    "0x2Bc52Ad01a239b166B3177Ad746dE9028dAb451f",
    "The Villa House"
  ],
  "numDeployments": 1,
  "solcInputHash": "4c58e04058d6dca648cec7388391482c",
  "bytecode": "0x6080604052600a805460ff191690553480156200001b57600080fd5b50604051620018c0380380620018c08339810160408190526200003e91620001e1565b6200004933620000bc565b60018055600280546001600160a01b0380871661010002610100600160a81b031990921691909117909155600380548583166001600160a01b03199182161790915560058054928516929091169190911790558051620000b19060049060208401906200010c565b50505050506200033c565b600080546001600160a01b038381166001600160a01b0319831681178455604051919092169283917f8be0079c531659141344cd1fd0a4f28419497f9722a3daafe3b4186f6b6457e09190a35050565b8280546200011a90620002ff565b90600052602060002090601f0160209004810192826200013e576000855562000189565b82601f106200015957805160ff191683800117855562000189565b8280016001018555821562000189579182015b82811115620001895782518255916020019190600101906200016c565b50620001979291506200019b565b5090565b5b808211156200019757600081556001016200019c565b6001600160a01b0381168114620001c857600080fd5b50565b634e487b7160e01b600052604160045260246000fd5b60008060008060808587031215620001f857600080fd5b84516200020581620001b2565b809450506020808601516200021a81620001b2565b60408701519094506200022d81620001b2565b60608701519093506001600160401b03808211156200024b57600080fd5b818801915088601f8301126200026057600080fd5b815181811115620002755762000275620001cb565b604051601f8201601f19908116603f01168101908382118183101715620002a057620002a0620001cb565b816040528281528b86848701011115620002b957600080fd5b600093505b82841015620002dd5784840186015181850187015292850192620002be565b82841115620002ef5760008684830101525b989b979a50959850505050505050565b600181811c908216806200031457607f821691505b602082108114156200033657634e487b7160e01b600052602260045260246000fd5b50919050565b611574806200034c6000396000f3fe60806040526004361061011f5760003560e01c806392524e74116100a0578063bec3085211610064578063bec3085214610313578063e81a89a514610333578063e97dcb6214610357578063f2fde38b1461036c578063fe67a54b1461038c57600080fd5b806392524e74146102715780639979ef45146102b0578063add9b333146102d0578063b93c6400146102e6578063be040fb01461030b57600080fd5b80633ccfd60b116100e75780633ccfd60b146101da5780633fba8d7a146101ef57806360c1b72214610219578063715018a61461023e5780638da5cb5b1461025357600080fd5b8063032b0cc11461012457806304cb72f91461014f5780630f4751e21461016657806316b48d061461019e5780633c42d5ae146101c5575b600080fd5b34801561013057600080fd5b506101396103a1565b60405161014691906110f9565b60405180910390f35b34801561015b57600080fd5b5061016461042f565b005b34801561017257600080fd5b50600554610186906001600160a01b031681565b6040516001600160a01b039091168152602001610146565b3480156101aa57600080fd5b506002546101b89060ff1681565b6040516101469190611142565b3480156101d157600080fd5b506101646104d1565b3480156101e657600080fd5b506101646106f3565b3480156101fb57600080fd5b50600a546102099060ff1681565b6040519015158152602001610146565b34801561022557600080fd5b506102306201518081565b604051908152602001610146565b34801561024a57600080fd5b506101646107dc565b34801561025f57600080fd5b506000546001600160a01b0316610186565b34801561027d57600080fd5b5061029161028c36600461116a565b610810565b604080516001600160a01b039093168352602083019190915201610146565b3480156102bc57600080fd5b506101646102cb36600461116a565b610848565b3480156102dc57600080fd5b5061023060065481565b3480156102f257600080fd5b506002546101869061010090046001600160a01b031681565b610164610c1f565b34801561031f57600080fd5b50600354610186906001600160a01b031681565b34801561033f57600080fd5b50600854600954610291916001600160a01b03169082565b34801561036357600080fd5b50610164610d53565b34801561037857600080fd5b50610164610387366004611183565b610e43565b34801561039857600080fd5b50610164610edb565b600480546103ae906111b3565b80601f01602080910402602001604051908101604052809291908181526020018280546103da906111b3565b80156104275780601f106103fc57610100808354040283529160200191610427565b820191906000526020600020905b81548152906001019060200180831161040a57829003601f168201915b505050505081565b6000546001600160a01b031633146104625760405162461bcd60e51b8152600401610459906111ee565b60405180910390fd5b60016002805460ff169081111561047b5761047b61112c565b1461049957604051633de0542760e11b815260040160405180910390fd5b600a5460ff166104bc576040516332870bef60e21b815260040160405180910390fd5b60028054819060ff19166001825b0217905550565b6000546001600160a01b031633146104fb5760405162461bcd60e51b8152600401610459906111ee565b6006546106e1576002546005546040516370a0823160e01b81526001600160a01b03918216600482015261010090920416906370a082319060240160206040518083038186803b15801561054e57600080fd5b505afa158015610562573d6000803e3d6000fd5b505050506040513d601f19601f820116820180604052508101906105869190611223565b6001146105a657604051632d62514360e11b815260040160405180910390fd5b60046040516020016105b8919061123c565b60405160208183030381529060405280519060200120600260019054906101000a90046001600160a01b03166001600160a01b03166306fdde036040518163ffffffff1660e01b815260040160006040518083038186803b15801561061c57600080fd5b505afa158015610630573d6000803e3d6000fd5b505050506040513d6000823e601f3d908101601f1916820160405261065891908101906112ee565b604051602001610668919061139b565b604051602081830303815290604052805190602001201461069b5760405162d81e1f60e71b815260040160405180910390fd5b60006002805460ff16908111156106b4576106b461112c565b146106d25760405163387d852b60e11b815260040160405180910390fd5b6002805460ff19166001179055565b6106e9610f72565b6106f16104d1565b565b6000546001600160a01b0316331461071d5760405162461bcd60e51b8152600401610459906111ee565b600260015414156107705760405162461bcd60e51b815260206004820152601f60248201527f5265656e7472616e637947756172643a207265656e7472616e742063616c6c006044820152606401610459565b6002600155600080546040516001600160a01b039091169047908381818185875af1925050503d80600081146107c2576040519150601f19603f3d011682016040523d82523d6000602084013e6107c7565b606091505b50509050806107d557600080fd5b5060018055565b6000546001600160a01b031633146108065760405162461bcd60e51b8152600401610459906111ee565b6106f16000611033565b6007818154811061082057600080fd5b6000918252602090912060029091020180546001909101546001600160a01b03909116915082565b6002805460ff168181111561085f5761085f61112c565b1461087d57604051631195288d60e01b815260040160405180910390fd5b6003546040516370a0823160e01b81523360048201526001600160a01b03909116906370a082319060240160206040518083038186803b1580156108c057600080fd5b505afa1580156108d4573d6000803e3d6000fd5b505050506040513d601f19601f820116820180604052508101906108f89190611223565b6109155760405163382ebd6560e11b815260040160405180910390fd5b600354604051636eb1769f60e11b81523360048201523060248201526000916001600160a01b03169063dd62ed3e9060440160206040518083038186803b15801561095f57600080fd5b505afa158015610973573d6000803e3d6000fd5b505050506040513d601f19601f820116820180604052508101906109979190611223565b9050600081116109bd576040516001620c804b60e41b0319815260040160405180910390fd5b600954828114156109e15760405163a7d9387960e01b815260040160405180910390fd5b60408051808201909152338152602081018481526007805460018101825560009190915291517fa66cc928b5edb82af9bd49922954155ab7b0942694bea4ce44661d9a8736c688600290930292830180546001600160a01b0319166001600160a01b03909216919091179055517fa66cc928b5edb82af9bd49922954155ab7b0942694bea4ce44661d9a8736c6899091015580831115610ada57604080518082018252338082526020918201869052600880546001600160a01b031916821790556009869055915191825284917fdeda60fb6e38f55d4ccab679f50f933d04b1dca8584775216dbdac46f251ca4a910160405180910390a25b80831015610b1c5760408051338152602081018590527fdd0b6c6a77960e2066c96171b4d7ac9e8b4c184011f38544afa36a5bb63ec59f910160405180910390a15b6003546040805163313ce56760e01b815290516000926001600160a01b03169163313ce567916004808301926020929190829003018186803b158015610b6157600080fd5b505afa158015610b75573d6000803e3d6000fd5b505050506040513d601f19601f82011682018060405250810190610b9991906113b7565b90506000610ba882600a6114d6565b610bb39060016114e5565b60035460405163079cc67960e41b8152336004820152602481018390529192506001600160a01b0316906379cc679090604401600060405180830381600087803b158015610c0057600080fd5b505af1158015610c14573d6000803e3d6000fd5b505050505050505050565b3360006002805460ff1690811115610c3957610c3961112c565b14610c575760405163387d852b60e11b815260040160405180910390fd5b6008546001600160a01b03828116911614610c85576040516363968b8b60e01b815260040160405180910390fd5b6009543414610ca75760405163349fbd3d60e21b815260040160405180910390fd5b600254600554604051632142170760e11b81526001600160a01b03918216600482015283821660248201526000604482015261010090920416906342842e0e90606401600060405180830381600087803b158015610d0457600080fd5b505af1158015610d18573d6000803e3d6000fd5b50506040516001600160a01b03841692507ffbd6287d9242307b2750fc8252314857896e312d167cdbc9eed322bae8828e009150600090a250565b60016002805460ff1690811115610d6c57610d6c61112c565b14610d8a57604051633de0542760e11b815260040160405180910390fd5b600354604051635c9533db60e11b81523360048201526000916001600160a01b03169063b92a67b690602401602060405180830381600087803b158015610dd057600080fd5b505af1158015610de4573d6000803e3d6000fd5b505050506040513d601f19601f82011682018060405250810190610e089190611504565b905080610e285760405163034eb39360e01b815260040160405180910390fd5b600a5460ff16610e4057600a805460ff191660011790555b50565b6000546001600160a01b03163314610e6d5760405162461bcd60e51b8152600401610459906111ee565b6001600160a01b038116610ed25760405162461bcd60e51b815260206004820152602660248201527f4f776e61626c653a206e6577206f776e657220697320746865207a65726f206160448201526564647265737360d01b6064820152608401610459565b610e4081611033565b6000546001600160a01b03163314610f055760405162461bcd60e51b8152600401610459906111ee565b6002805460ff1681811115610f1c57610f1c61112c565b14610f3a57604051631195288d60e01b815260040160405180910390fd5b600954610f5a5760405163033d67f360e51b815260040160405180910390fd5b42600655600280546000919060ff19166001836104ca565b600654610f9257604051633553558f60e01b815260040160405180910390fd5b62015180600654610fa39190611526565b421015610fc357604051632002e49160e11b815260040160405180910390fd5b60006006819055610fd690600790611083565b600a805460ff1916905560408051808201825260008082526020909101819052600880546001600160a01b0319169055600981905590517fb29acd3a7cb5ace2405d06fbeaf3f33431934937aed74cd83be763aa291e71329190a1565b600080546001600160a01b038381166001600160a01b0319831681178455604051919092169283917f8be0079c531659141344cd1fd0a4f28419497f9722a3daafe3b4186f6b6457e09190a35050565b5080546000825560020290600052602060002090810190610e4091905b808211156110c55780546001600160a01b0319168155600060018201556002016110a0565b5090565b60005b838110156110e45781810151838201526020016110cc565b838111156110f3576000848401525b50505050565b60208152600082518060208401526111188160408501602087016110c9565b601f01601f19169190910160400192915050565b634e487b7160e01b600052602160045260246000fd5b602081016003831061116457634e487b7160e01b600052602160045260246000fd5b91905290565b60006020828403121561117c57600080fd5b5035919050565b60006020828403121561119557600080fd5b81356001600160a01b03811681146111ac57600080fd5b9392505050565b600181811c908216806111c757607f821691505b602082108114156111e857634e487b7160e01b600052602260045260246000fd5b50919050565b6020808252818101527f4f776e61626c653a2063616c6c6572206973206e6f7420746865206f776e6572604082015260600190565b60006020828403121561123557600080fd5b5051919050565b600080835481600182811c91508083168061125857607f831692505b602080841082141561127857634e487b7160e01b86526022600452602486fd5b81801561128c576001811461129d576112ca565b60ff198616895284890196506112ca565b60008a81526020902060005b868110156112c25781548b8201529085019083016112a9565b505084890196505b509498975050505050505050565b634e487b7160e01b600052604160045260246000fd5b60006020828403121561130057600080fd5b815167ffffffffffffffff8082111561131857600080fd5b818401915084601f83011261132c57600080fd5b81518181111561133e5761133e6112d8565b604051601f8201601f19908116603f01168101908382118183101715611366576113666112d8565b8160405282815287602084870101111561137f57600080fd5b6113908360208301602088016110c9565b979650505050505050565b600082516113ad8184602087016110c9565b9190910192915050565b6000602082840312156113c957600080fd5b815160ff811681146111ac57600080fd5b634e487b7160e01b600052601160045260246000fd5b600181815b8085111561142b578160001904821115611411576114116113da565b8085161561141e57918102915b93841c93908002906113f5565b509250929050565b600082611442575060016114d0565b8161144f575060006114d0565b8160018114611465576002811461146f5761148b565b60019150506114d0565b60ff841115611480576114806113da565b50506001821b6114d0565b5060208310610133831016604e8410600b84101617156114ae575081810a6114d0565b6114b883836113f0565b80600019048211156114cc576114cc6113da565b0290505b92915050565b60006111ac60ff841683611433565b60008160001904831182151516156114ff576114ff6113da565b500290565b60006020828403121561151657600080fd5b815180151581146111ac57600080fd5b60008219821115611539576115396113da565b50019056fea26469706673582212205f1b6f6d0ef20bfcb62ad2f0758e7bc4fa728fdbd5d090948dcff909031d598164736f6c63430008090033",
  "devdoc": {
    "kind": "dev",
    "methods": {
      "owner()": {
        "details": "Returns the address of the current owner."
      },
      "placeBid(uint256)": {
        "params": {
          "_bid": ": bid amount should be in wei "
        }
      },
      "renounceOwnership()": {
        "details": "Leaves the contract without owner. It will not be possible to call `onlyOwner` functions anymore. Can only be called by the current owner. NOTE: Renouncing ownership will leave the contract without an owner, thereby removing any functionality that is only available to the owner."
      },
      "transferOwnership(address)": {
        "details": "Transfers ownership of the contract to a new account (`newOwner`). Can only be called by the current owner."
      }
    },
    "version": 1
  },
  "userdoc": {
    "kind": "user",
    "methods": {
      "enter()": {
        "notice": "The auction contract should be authorized by the owner of token contract (dao) before transfering the tokens.  "
      },
      "redeem()": {
        "notice": "Auction contract must have the approval to transfer NFT User must redeem withing the time frame"
      }
    },
    "version": 1
  },
  "storageLayout": {
    "storage": [
      {
        "astId": 137,
        "contract": "contracts/Auction.sol:Auction",
        "label": "_owner",
        "offset": 0,
        "slot": "0",
        "type": "t_address"
      },
      {
        "astId": 245,
        "contract": "contracts/Auction.sol:Auction",
        "label": "_status",
        "offset": 0,
        "slot": "1",
        "type": "t_uint256"
      },
      {
        "astId": 3247,
        "contract": "contracts/Auction.sol:Auction",
        "label": "s_auctionState",
        "offset": 0,
        "slot": "2",
        "type": "t_enum(AuctionState)3234"
      },
      {
        "astId": 3250,
        "contract": "contracts/Auction.sol:Auction",
        "label": "s_auctionNFT",
        "offset": 1,
        "slot": "2",
        "type": "t_contract(AuctionNFT)3766"
      },
      {
        "astId": 3253,
        "contract": "contracts/Auction.sol:Auction",
        "label": "s_auctionToken",
        "offset": 0,
        "slot": "3",
        "type": "t_contract(AuctionToken)3828"
      },
      {
        "astId": 3255,
        "contract": "contracts/Auction.sol:Auction",
        "label": "s_NFTName",
        "offset": 0,
        "slot": "4",
        "type": "t_string_storage"
      },
      {
        "astId": 3257,
        "contract": "contracts/Auction.sol:Auction",
        "label": "s_auctionHost",
        "offset": 0,
        "slot": "5",
        "type": "t_address"
      },
      {
        "astId": 3259,
        "contract": "contracts/Auction.sol:Auction",
        "label": "s_timeStart",
        "offset": 0,
        "slot": "6",
        "type": "t_uint256"
      },
      {
        "astId": 3263,
        "contract": "contracts/Auction.sol:Auction",
        "label": "s_bids",
        "offset": 0,
        "slot": "7",
        "type": "t_array(t_struct(Bid)3239_storage)dyn_storage"
      },
      {
        "astId": 3266,
        "contract": "contracts/Auction.sol:Auction",
        "label": "s_highestBid",
        "offset": 0,
        "slot": "8",
        "type": "t_struct(HighestBid)3244_storage"
      },
      {
        "astId": 3269,
        "contract": "contracts/Auction.sol:Auction",
        "label": "s_bidders",
        "offset": 0,
        "slot": "10",
        "type": "t_bool"
      }
    ],
    "types": {
      "t_address": {
        "encoding": "inplace",
        "label": "address",
        "numberOfBytes": "20"
      },
      "t_array(t_struct(Bid)3239_storage)dyn_storage": {
        "base": "t_struct(Bid)3239_storage",
        "encoding": "dynamic_array",
        "label": "struct Auction.Bid[]",
        "numberOfBytes": "32"
      },
      "t_bool": {
        "encoding": "inplace",
        "label": "bool",
        "numberOfBytes": "1"
      },
      "t_contract(AuctionNFT)3766": {
        "encoding": "inplace",
        "label": "contract AuctionNFT",
        "numberOfBytes": "20"
      },
      "t_contract(AuctionToken)3828": {
        "encoding": "inplace",
        "label": "contract AuctionToken",
        "numberOfBytes": "20"
      },
      "t_enum(AuctionState)3234": {
        "encoding": "inplace",
        "label": "enum Auction.AuctionState",
        "numberOfBytes": "1"
      },
      "t_string_storage": {
        "encoding": "bytes",
        "label": "string",
        "numberOfBytes": "32"
      },
      "t_struct(Bid)3239_storage": {
        "encoding": "inplace",
        "label": "struct Auction.Bid",
        "members": [
          {
            "astId": 3236,
            "contract": "contracts/Auction.sol:Auction",
            "label": "bidder",
            "offset": 0,
            "slot": "0",
            "type": "t_address"
          },
          {
            "astId": 3238,
            "contract": "contracts/Auction.sol:Auction",
            "label": "bid",
            "offset": 0,
            "slot": "1",
            "type": "t_uint256"
          }
        ],
        "numberOfBytes": "64"
      },
      "t_struct(HighestBid)3244_storage": {
        "encoding": "inplace",
        "label": "struct Auction.HighestBid",
        "members": [
          {
            "astId": 3241,
            "contract": "contracts/Auction.sol:Auction",
            "label": "highestBidder",
            "offset": 0,
            "slot": "0",
            "type": "t_address"
          },
          {
            "astId": 3243,
            "contract": "contracts/Auction.sol:Auction",
            "label": "highestBid",
            "offset": 0,
            "slot": "1",
            "type": "t_uint256"
          }
        ],
        "numberOfBytes": "64"
      },
      "t_uint256": {
        "encoding": "inplace",
        "label": "uint256",
        "numberOfBytes": "32"
      }
    }
  }
}