{
  "address": "0x1c8852Fd0c4BFDBEa80d60409411FA539fF5BC5D",
  "abi": [
    {
      "inputs": [],
      "name": "AuctionFactory__NameAlreadyTaken",
      "type": "error"
    },
    {
      "anonymous": false,
      "inputs": [
        {
          "indexed": true,
          "internalType": "bytes32",
          "name": "_auctionName",
          "type": "bytes32"
        },
        {
          "components": [
            {
              "internalType": "address",
              "name": "auctionCreator",
              "type": "address"
            },
            {
              "internalType": "contract Auction",
              "name": "auction",
              "type": "address"
            },
            {
              "internalType": "contract AuctionNFT",
              "name": "auctionNFT",
              "type": "address"
            },
            {
              "internalType": "contract AuctionToken",
              "name": "auctionToken",
              "type": "address"
            }
          ],
          "indexed": false,
          "internalType": "struct AuctionFactory.AuctionInfo",
          "name": "_auctionInfo",
          "type": "tuple"
        }
      ],
      "name": "AuctionCreated",
      "type": "event"
    },
    {
      "inputs": [
        {
          "internalType": "string",
          "name": "_auctionName",
          "type": "string"
        },
        {
          "internalType": "string",
          "name": "_NFTName",
          "type": "string"
        },
        {
          "internalType": "address",
          "name": "_nftAddress",
          "type": "address"
        },
        {
          "internalType": "string",
          "name": "_coinName",
          "type": "string"
        },
        {
          "internalType": "string",
          "name": "_coinSymbol",
          "type": "string"
        },
        {
          "internalType": "uint256",
          "name": "_coinMaxTokens",
          "type": "uint256"
        }
      ],
      "name": "createAuction",
      "outputs": [],
      "stateMutability": "nonpayable",
      "type": "function"
    },
    {
      "inputs": [
        {
          "internalType": "address",
          "name": "_address",
          "type": "address"
        }
      ],
      "name": "getAuctionsByAddress",
      "outputs": [
        {
          "components": [
            {
              "internalType": "address",
              "name": "auctionCreator",
              "type": "address"
            },
            {
              "internalType": "contract Auction",
              "name": "auction",
              "type": "address"
            },
            {
              "internalType": "contract AuctionNFT",
              "name": "auctionNFT",
              "type": "address"
            },
            {
              "internalType": "contract AuctionToken",
              "name": "auctionToken",
              "type": "address"
            }
          ],
          "internalType": "struct AuctionFactory.AuctionInfo[]",
          "name": "",
          "type": "tuple[]"
        }
      ],
      "stateMutability": "view",
      "type": "function"
    },
    {
      "inputs": [],
      "name": "getAuctionsCount",
      "outputs": [
        {
          "internalType": "uint256",
          "name": "",
          "type": "uint256"
        }
      ],
      "stateMutability": "view",
      "type": "function"
    },
    {
      "inputs": [
        {
          "internalType": "bytes32",
          "name": "",
          "type": "bytes32"
        }
      ],
      "name": "s_auctionNameTaken",
      "outputs": [
        {
          "internalType": "bool",
          "name": "",
          "type": "bool"
        }
      ],
      "stateMutability": "view",
      "type": "function"
    },
    {
      "inputs": [
        {
          "internalType": "address",
          "name": "",
          "type": "address"
        },
        {
          "internalType": "uint256",
          "name": "",
          "type": "uint256"
        }
      ],
      "name": "s_auctionNamesByAddress",
      "outputs": [
        {
          "internalType": "bytes32",
          "name": "",
          "type": "bytes32"
        }
      ],
      "stateMutability": "view",
      "type": "function"
    },
    {
      "inputs": [
        {
          "internalType": "uint256",
          "name": "",
          "type": "uint256"
        }
      ],
      "name": "s_auctions",
      "outputs": [
        {
          "internalType": "address",
          "name": "auctionCreator",
          "type": "address"
        },
        {
          "internalType": "contract Auction",
          "name": "auction",
          "type": "address"
        },
        {
          "internalType": "contract AuctionNFT",
          "name": "auctionNFT",
          "type": "address"
        },
        {
          "internalType": "contract AuctionToken",
          "name": "auctionToken",
          "type": "address"
        }
      ],
      "stateMutability": "view",
      "type": "function"
    },
    {
      "inputs": [
        {
          "internalType": "bytes32",
          "name": "",
          "type": "bytes32"
        }
      ],
      "name": "s_auctionsMappedByName",
      "outputs": [
        {
          "internalType": "address",
          "name": "auctionCreator",
          "type": "address"
        },
        {
          "internalType": "contract Auction",
          "name": "auction",
          "type": "address"
        },
        {
          "internalType": "contract AuctionNFT",
          "name": "auctionNFT",
          "type": "address"
        },
        {
          "internalType": "contract AuctionToken",
          "name": "auctionToken",
          "type": "address"
        }
      ],
      "stateMutability": "view",
      "type": "function"
    }
  ],
  "transactionHash": "0x3a5f527c66ae5edffdbbf88a74dfe3224e091647615a07c5b8f6ecce54f045f6",
  "args": [],
  "numDeployments": 1,
  "solcInputHash": "73b1ccb34544ba467859cb52bcb40fd4",
  "bytecode": "0x608060405234801561001057600080fd5b506139cb806100206000396000f3fe60806040523480156200001157600080fd5b5060043610620000875760003560e01c806399451017116200006257806399451017146200015f578063ae5f0ec21462000178578063d5013c9a14620001af578063e45c187914620001c657600080fd5b8063153766f4146200008c57806355baee3314620000bb57806398d326991462000139575b600080fd5b620000a36200009d366004620006fa565b620001cf565b604051620000b291906200071f565b60405180910390f35b62000105620000cc3660046200079e565b600160208190526000918252604090912080549181015460028201546003909201546001600160a01b0393841693918216928216911684565b604080516001600160a01b0395861681529385166020850152918416918301919091529091166060820152608001620000b2565b620001506200014a366004620007b8565b6200036f565b604051908152602001620000b2565b620001766200017036600462000890565b620003a1565b005b6200019e620001893660046200079e565b60036020526000908152604090205460ff1681565b6040519015158152602001620000b2565b62000105620001c03660046200079e565b62000676565b60005462000150565b6001600160a01b03811660009081526002602090815260408083208054825181850281018501909352808352606094938301828280156200023057602002820191906000526020600020905b8154815260200190600101908083116200021b575b505050505090506000815167ffffffffffffffff811115620002565762000256620007e5565b604051908082528060200260200182016040528015620002aa57816020015b604080516080810182526000808252602080830182905292820181905260608201528252600019909201910181620002755790505b50905060005b8251811015620003675760016000848381518110620002d357620002d362000965565b6020908102919091018101518252818101929092526040908101600020815160808101835281546001600160a01b03908116825260018301548116948201949094526002820154841692810192909252600301549091166060820152825183908390811062000346576200034662000965565b602002602001018190525080806200035e906200097b565b915050620002b0565b509392505050565b600260205281600052604060002081815481106200038c57600080fd5b90600052602060002001600091509150505481565b6040513390600090620003b9908990602001620009d8565b60408051601f1981840301815291815281516020928301206000818152600390935291205490915060ff16156200040357604051631eebda0760e01b815260040160405180910390fd5b60008690506000868686866040516200041c90620006c1565b6200042b949392919062000a24565b604051809103906000f08015801562000448573d6000803e3d6000fd5b50905060008a8383878d6040516200046090620006cf565b6200047095949392919062000a6f565b604051809103906000f0801580156200048d573d6000803e3d6000fd5b50604080516080810182526001600160a01b038089168083528185166020808501918252898416858701908152898516606087019081526000805460018181018355828052895160049092027f290decd9548b62a8d60345a988386fc84ba6bc95484008f6362f93160ef3e56381018054938b166001600160a01b031994851617905587517f290decd9548b62a8d60345a988386fc84ba6bc95484008f6362f93160ef3e56482018054918c1691851691909117905585517f290decd9548b62a8d60345a988386fc84ba6bc95484008f6362f93160ef3e56582018054918c1691851691909117905584517f290decd9548b62a8d60345a988386fc84ba6bc95484008f6362f93160ef3e5669091018054918b169184169190911790558f83528086528a83208a518154908b1690841617815596518782018054918b16918416919091179055935160028781018054928b16928416929092179091559251600396870180549190991691161790965593855292815285842080548085018255908552818520018b90558a84525290839020805460ff1916909117905590519192509085907fe5345b13e6011ca984f2afe7dcd45c86d39d65e901d14730b50cdf7e223ed0c8906200066090849062000ac3565b60405180910390a2505050505050505050505050565b600081815481106200068757600080fd5b600091825260209091206004909102018054600182015460028301546003909301546001600160a01b039283169450908216928216911684565b61145f8062000b0783390190565b611a308062001f6683390190565b80356001600160a01b0381168114620006f557600080fd5b919050565b6000602082840312156200070d57600080fd5b6200071882620006dd565b9392505050565b6020808252825182820181905260009190848201906040850190845b8181101562000792576200077e83855180516001600160a01b03908116835260208083015182169084015260408083015182169084015260609182015116910152565b92840192608092909201916001016200073b565b50909695505050505050565b600060208284031215620007b157600080fd5b5035919050565b60008060408385031215620007cc57600080fd5b620007d783620006dd565b946020939093013593505050565b634e487b7160e01b600052604160045260246000fd5b600082601f8301126200080d57600080fd5b813567ffffffffffffffff808211156200082b576200082b620007e5565b604051601f8301601f19908116603f01168101908282118183101715620008565762000856620007e5565b816040528381528660208588010111156200087057600080fd5b836020870160208301376000602085830101528094505050505092915050565b60008060008060008060c08789031215620008aa57600080fd5b863567ffffffffffffffff80821115620008c357600080fd5b620008d18a838b01620007fb565b97506020890135915080821115620008e857600080fd5b620008f68a838b01620007fb565b96506200090660408a01620006dd565b955060608901359150808211156200091d57600080fd5b6200092b8a838b01620007fb565b945060808901359150808211156200094257600080fd5b506200095189828a01620007fb565b92505060a087013590509295509295509295565b634e487b7160e01b600052603260045260246000fd5b60006000198214156200099e57634e487b7160e01b600052601160045260246000fd5b5060010190565b60005b83811015620009c2578181015183820152602001620009a8565b83811115620009d2576000848401525b50505050565b60008251620009ec818460208701620009a5565b9190910192915050565b6000815180845262000a10816020860160208601620009a5565b601f01601f19169290920160200192915050565b60808152600062000a396080830187620009f6565b828103602084015262000a4d8187620009f6565b604084019590955250506001600160a01b039190911660609091015292915050565b60a08152600062000a8460a0830188620009f6565b6001600160a01b038781166020850152868116604085015285166060840152828103608084015262000ab78185620009f6565b98975050505050505050565b6080810162000b00828480516001600160a01b03908116835260208083015182169084015260408083015182169084015260609182015116910152565b9291505056fe60806040523480156200001157600080fd5b506040516200145f3803806200145f833981016040819052620000349162000448565b8351849084906200004d906003906020850190620002d5565b50805162000063906004906020840190620002d5565b505050620000806200007a620000c560201b60201c565b620000c9565b620000a581620000936012600a620005f2565b6200009f90856200060a565b6200011b565b620000bb816200020460201b620004f11760201c565b5050505062000684565b3390565b600580546001600160a01b038381166001600160a01b0319831681179093556040519116919082907f8be0079c531659141344cd1fd0a4f28419497f9722a3daafe3b4186f6b6457e090600090a35050565b6001600160a01b038216620001775760405162461bcd60e51b815260206004820152601f60248201527f45524332303a206d696e7420746f20746865207a65726f20616464726573730060448201526064015b60405180910390fd5b80600260008282546200018b91906200062c565b90915550506001600160a01b03821660009081526020819052604081208054839290620001ba9084906200062c565b90915550506040518181526001600160a01b038316906000907fddf252ad1be2c89b69c2b068fc378daa952ba7f163c4a11628f55a4df523b3ef9060200160405180910390a35050565b6005546001600160a01b03163314620002605760405162461bcd60e51b815260206004820181905260248201527f4f776e61626c653a2063616c6c6572206973206e6f7420746865206f776e657260448201526064016200016e565b6001600160a01b038116620002c75760405162461bcd60e51b815260206004820152602660248201527f4f776e61626c653a206e6577206f776e657220697320746865207a65726f206160448201526564647265737360d01b60648201526084016200016e565b620002d281620000c9565b50565b828054620002e39062000647565b90600052602060002090601f01602090048101928262000307576000855562000352565b82601f106200032257805160ff191683800117855562000352565b8280016001018555821562000352579182015b828111156200035257825182559160200191906001019062000335565b506200036092915062000364565b5090565b5b8082111562000360576000815560010162000365565b634e487b7160e01b600052604160045260246000fd5b600082601f830112620003a357600080fd5b81516001600160401b0380821115620003c057620003c06200037b565b604051601f8301601f19908116603f01168101908282118183101715620003eb57620003eb6200037b565b816040528381526020925086838588010111156200040857600080fd5b600091505b838210156200042c57858201830151818301840152908201906200040d565b838211156200043e5760008385830101525b9695505050505050565b600080600080608085870312156200045f57600080fd5b84516001600160401b03808211156200047757600080fd5b620004858883890162000391565b955060208701519150808211156200049c57600080fd5b50620004ab8782880162000391565b60408701516060880151919550935090506001600160a01b0381168114620004d257600080fd5b939692955090935050565b634e487b7160e01b600052601160045260246000fd5b600181815b8085111562000534578160001904821115620005185762000518620004dd565b808516156200052657918102915b93841c9390800290620004f8565b509250929050565b6000826200054d57506001620005ec565b816200055c57506000620005ec565b81600181146200057557600281146200058057620005a0565b6001915050620005ec565b60ff841115620005945762000594620004dd565b50506001821b620005ec565b5060208310610133831016604e8410600b8410161715620005c5575081810a620005ec565b620005d18383620004f3565b8060001904821115620005e857620005e8620004dd565b0290505b92915050565b60006200060360ff8416836200053c565b9392505050565b6000816000190483118215151615620006275762000627620004dd565b500290565b60008219821115620006425762000642620004dd565b500190565b600181811c908216806200065c57607f821691505b602082108114156200067e57634e487b7160e01b600052602260045260246000fd5b50919050565b610dcb80620006946000396000f3fe608060405234801561001057600080fd5b506004361061010b5760003560e01c8063715018a6116100a2578063a457c2d711610071578063a457c2d714610214578063a9059cbb14610227578063b92a67b61461023a578063dd62ed3e1461024d578063f2fde38b1461026057600080fd5b8063715018a6146101d657806379cc6790146101de5780638da5cb5b146101f157806395d89b411461020c57600080fd5b8063313ce567116100de578063313ce56714610176578063395093511461018557806342966c681461019857806370a08231146101ad57600080fd5b806306fdde0314610110578063095ea7b31461012e57806318160ddd1461015157806323b872dd14610163575b600080fd5b610118610273565b6040516101259190610abe565b60405180910390f35b61014161013c366004610b2f565b610305565b6040519015158152602001610125565b6002545b604051908152602001610125565b610141610171366004610b59565b61031f565b60405160128152602001610125565b610141610193366004610b2f565b610343565b6101ab6101a6366004610b95565b610365565b005b6101556101bb366004610bae565b6001600160a01b031660009081526020819052604090205490565b6101ab610372565b6101ab6101ec366004610b2f565b6103dd565b6005546040516001600160a01b039091168152602001610125565b6101186103f6565b610141610222366004610b2f565b610405565b610141610235366004610b2f565b610480565b610141610248366004610bae565b61048e565b61015561025b366004610bd0565b6104c6565b6101ab61026e366004610bae565b6104f1565b60606003805461028290610c03565b80601f01602080910402602001604051908101604052809291908181526020018280546102ae90610c03565b80156102fb5780601f106102d0576101008083540402835291602001916102fb565b820191906000526020600020905b8154815290600101906020018083116102de57829003601f168201915b5050505050905090565b6000336103138185856105b9565b60019150505b92915050565b60003361032d8582856106de565b610338858585610758565b506001949350505050565b60003361031381858561035683836104c6565b6103609190610c54565b6105b9565b61036f3382610926565b50565b6005546001600160a01b031633146103d15760405162461bcd60e51b815260206004820181905260248201527f4f776e61626c653a2063616c6c6572206973206e6f7420746865206f776e657260448201526064015b60405180910390fd5b6103db6000610a6c565b565b6103e88233836106de565b6103f28282610926565b5050565b60606004805461028290610c03565b6000338161041382866104c6565b9050838110156104735760405162461bcd60e51b815260206004820152602560248201527f45524332303a2064656372656173656420616c6c6f77616e63652062656c6f77604482015264207a65726f60d81b60648201526084016103c8565b61033882868684036105b9565b600033610313818585610758565b60006104bd6104a56005546001600160a01b031690565b836104b26012600a610d50565b610171906001610d5f565b50600192915050565b6001600160a01b03918216600090815260016020908152604080832093909416825291909152205490565b6005546001600160a01b0316331461054b5760405162461bcd60e51b815260206004820181905260248201527f4f776e61626c653a2063616c6c6572206973206e6f7420746865206f776e657260448201526064016103c8565b6001600160a01b0381166105b05760405162461bcd60e51b815260206004820152602660248201527f4f776e61626c653a206e6577206f776e657220697320746865207a65726f206160448201526564647265737360d01b60648201526084016103c8565b61036f81610a6c565b6001600160a01b03831661061b5760405162461bcd60e51b8152602060048201526024808201527f45524332303a20617070726f76652066726f6d20746865207a65726f206164646044820152637265737360e01b60648201526084016103c8565b6001600160a01b03821661067c5760405162461bcd60e51b815260206004820152602260248201527f45524332303a20617070726f766520746f20746865207a65726f206164647265604482015261737360f01b60648201526084016103c8565b6001600160a01b0383811660008181526001602090815260408083209487168084529482529182902085905590518481527f8c5be1e5ebec7d5bd14f71427d1e84f3dd0314c0f7b2291e5b200ac8c7c3b92591015b60405180910390a3505050565b60006106ea84846104c6565b9050600019811461075257818110156107455760405162461bcd60e51b815260206004820152601d60248201527f45524332303a20696e73756666696369656e7420616c6c6f77616e636500000060448201526064016103c8565b61075284848484036105b9565b50505050565b6001600160a01b0383166107bc5760405162461bcd60e51b815260206004820152602560248201527f45524332303a207472616e736665722066726f6d20746865207a65726f206164604482015264647265737360d81b60648201526084016103c8565b6001600160a01b03821661081e5760405162461bcd60e51b815260206004820152602360248201527f45524332303a207472616e7366657220746f20746865207a65726f206164647260448201526265737360e81b60648201526084016103c8565b6001600160a01b038316600090815260208190526040902054818110156108965760405162461bcd60e51b815260206004820152602660248201527f45524332303a207472616e7366657220616d6f756e7420657863656564732062604482015265616c616e636560d01b60648201526084016103c8565b6001600160a01b038085166000908152602081905260408082208585039055918516815290812080548492906108cd908490610c54565b92505081905550826001600160a01b0316846001600160a01b03167fddf252ad1be2c89b69c2b068fc378daa952ba7f163c4a11628f55a4df523b3ef8460405161091991815260200190565b60405180910390a3610752565b6001600160a01b0382166109865760405162461bcd60e51b815260206004820152602160248201527f45524332303a206275726e2066726f6d20746865207a65726f206164647265736044820152607360f81b60648201526084016103c8565b6001600160a01b038216600090815260208190526040902054818110156109fa5760405162461bcd60e51b815260206004820152602260248201527f45524332303a206275726e20616d6f756e7420657863656564732062616c616e604482015261636560f01b60648201526084016103c8565b6001600160a01b0383166000908152602081905260408120838303905560028054849290610a29908490610d7e565b90915550506040518281526000906001600160a01b038516907fddf252ad1be2c89b69c2b068fc378daa952ba7f163c4a11628f55a4df523b3ef906020016106d1565b600580546001600160a01b038381166001600160a01b0319831681179093556040519116919082907f8be0079c531659141344cd1fd0a4f28419497f9722a3daafe3b4186f6b6457e090600090a35050565b600060208083528351808285015260005b81811015610aeb57858101830151858201604001528201610acf565b81811115610afd576000604083870101525b50601f01601f1916929092016040019392505050565b80356001600160a01b0381168114610b2a57600080fd5b919050565b60008060408385031215610b4257600080fd5b610b4b83610b13565b946020939093013593505050565b600080600060608486031215610b6e57600080fd5b610b7784610b13565b9250610b8560208501610b13565b9150604084013590509250925092565b600060208284031215610ba757600080fd5b5035919050565b600060208284031215610bc057600080fd5b610bc982610b13565b9392505050565b60008060408385031215610be357600080fd5b610bec83610b13565b9150610bfa60208401610b13565b90509250929050565b600181811c90821680610c1757607f821691505b60208210811415610c3857634e487b7160e01b600052602260045260246000fd5b50919050565b634e487b7160e01b600052601160045260246000fd5b60008219821115610c6757610c67610c3e565b500190565b600181815b80851115610ca7578160001904821115610c8d57610c8d610c3e565b80851615610c9a57918102915b93841c9390800290610c71565b509250929050565b600082610cbe57506001610319565b81610ccb57506000610319565b8160018114610ce15760028114610ceb57610d07565b6001915050610319565b60ff841115610cfc57610cfc610c3e565b50506001821b610319565b5060208310610133831016604e8410600b8410161715610d2a575081810a610319565b610d348383610c6c565b8060001904821115610d4857610d48610c3e565b029392505050565b6000610bc960ff841683610caf565b6000816000190483118215151615610d7957610d79610c3e565b500290565b600082821015610d9057610d90610c3e565b50039056fea2646970667358221220aa6e189427896cb02f993fcaa1a80524ba45e7805ac5e3a6755c3765152184bd64736f6c634300080900336080604052600b805460ff191690553480156200001b57600080fd5b5060405162001a3038038062001a308339810160408190526200003e9162000397565b6200004933620000e9565b600180558451620000629060049060208801906200020e565b50600280546001600160a01b0380871661010002610100600160a81b031990921691909117909155600380548583166001600160a01b03199182161790915560068054928516929091169190911790558051620000c79060059060208401906200020e565b50620000de826200013960201b62000e631760201c565b50505050506200047f565b600080546001600160a01b038381166001600160a01b0319831681178455604051919092169283917f8be0079c531659141344cd1fd0a4f28419497f9722a3daafe3b4186f6b6457e09190a35050565b6000546001600160a01b03163314620001995760405162461bcd60e51b815260206004820181905260248201527f4f776e61626c653a2063616c6c6572206973206e6f7420746865206f776e657260448201526064015b60405180910390fd5b6001600160a01b038116620002005760405162461bcd60e51b815260206004820152602660248201527f4f776e61626c653a206e6577206f776e657220697320746865207a65726f206160448201526564647265737360d01b606482015260840162000190565b6200020b81620000e9565b50565b8280546200021c9062000442565b90600052602060002090601f0160209004810192826200024057600085556200028b565b82601f106200025b57805160ff19168380011785556200028b565b828001600101855582156200028b579182015b828111156200028b5782518255916020019190600101906200026e565b50620002999291506200029d565b5090565b5b808211156200029957600081556001016200029e565b634e487b7160e01b600052604160045260246000fd5b600082601f830112620002dc57600080fd5b81516001600160401b0380821115620002f957620002f9620002b4565b604051601f8301601f19908116603f01168101908282118183101715620003245762000324620002b4565b816040528381526020925086838588010111156200034157600080fd5b600091505b8382101562000365578582018301518183018401529082019062000346565b83821115620003775760008385830101525b9695505050505050565b6001600160a01b03811681146200020b57600080fd5b600080600080600060a08688031215620003b057600080fd5b85516001600160401b0380821115620003c857600080fd5b620003d689838a01620002ca565b965060208801519150620003ea8262000381565b6040880151919550620003fd8262000381565b6060880151919450620004108262000381565b6080880151919350808211156200042657600080fd5b506200043588828901620002ca565b9150509295509295909350565b600181811c908216806200045757607f821691505b602082108114156200047957634e487b7160e01b600052602260045260246000fd5b50919050565b6115a1806200048f6000396000f3fe60806040526004361061012a5760003560e01c806392524e74116100ab578063bec308521161006f578063bec308521461031e578063e81a89a51461033e578063e97dcb6214610362578063f2fde38b14610377578063fce7e59714610397578063fe67a54b146103ac57600080fd5b806392524e741461027c5780639979ef45146102bb578063add9b333146102db578063b93c6400146102f1578063be040fb01461031657600080fd5b80633ccfd60b116100f25780633ccfd60b146101e55780633fba8d7a146101fa57806360c1b72214610224578063715018a6146102495780638da5cb5b1461025e57600080fd5b8063032b0cc11461012f57806304cb72f91461015a5780630f4751e21461017157806316b48d06146101a95780633c42d5ae146101d0575b600080fd5b34801561013b57600080fd5b506101446103c1565b6040516101519190611126565b60405180910390f35b34801561016657600080fd5b5061016f61044f565b005b34801561017d57600080fd5b50600654610191906001600160a01b031681565b6040516001600160a01b039091168152602001610151565b3480156101b557600080fd5b506002546101c39060ff1681565b604051610151919061116f565b3480156101dc57600080fd5b5061016f6104f1565b3480156101f157600080fd5b5061016f610713565b34801561020657600080fd5b50600b546102149060ff1681565b6040519015158152602001610151565b34801561023057600080fd5b5061023b6201518081565b604051908152602001610151565b34801561025557600080fd5b5061016f6107fc565b34801561026a57600080fd5b506000546001600160a01b0316610191565b34801561028857600080fd5b5061029c610297366004611197565b610830565b604080516001600160a01b039093168352602083019190915201610151565b3480156102c757600080fd5b5061016f6102d6366004611197565b610868565b3480156102e757600080fd5b5061023b60075481565b3480156102fd57600080fd5b506002546101919061010090046001600160a01b031681565b61016f610c3f565b34801561032a57600080fd5b50600354610191906001600160a01b031681565b34801561034a57600080fd5b50600954600a5461029c916001600160a01b03169082565b34801561036e57600080fd5b5061016f610d73565b34801561038357600080fd5b5061016f6103923660046111b0565b610e63565b3480156103a357600080fd5b50610144610efb565b3480156103b857600080fd5b5061016f610f08565b600580546103ce906111e0565b80601f01602080910402602001604051908101604052809291908181526020018280546103fa906111e0565b80156104475780601f1061041c57610100808354040283529160200191610447565b820191906000526020600020905b81548152906001019060200180831161042a57829003601f168201915b505050505081565b6000546001600160a01b031633146104825760405162461bcd60e51b81526004016104799061121b565b60405180910390fd5b60016002805460ff169081111561049b5761049b611159565b146104b957604051633de0542760e11b815260040160405180910390fd5b600b5460ff166104dc576040516332870bef60e21b815260040160405180910390fd5b60028054819060ff19166001825b0217905550565b6000546001600160a01b0316331461051b5760405162461bcd60e51b81526004016104799061121b565b600754610701576002546006546040516370a0823160e01b81526001600160a01b03918216600482015261010090920416906370a082319060240160206040518083038186803b15801561056e57600080fd5b505afa158015610582573d6000803e3d6000fd5b505050506040513d601f19601f820116820180604052508101906105a69190611250565b6001146105c657604051632d62514360e11b815260040160405180910390fd5b60056040516020016105d89190611269565b60405160208183030381529060405280519060200120600260019054906101000a90046001600160a01b03166001600160a01b03166306fdde036040518163ffffffff1660e01b815260040160006040518083038186803b15801561063c57600080fd5b505afa158015610650573d6000803e3d6000fd5b505050506040513d6000823e601f3d908101601f19168201604052610678919081019061131b565b60405160200161068891906113c8565b60405160208183030381529060405280519060200120146106bb5760405162d81e1f60e71b815260040160405180910390fd5b60006002805460ff16908111156106d4576106d4611159565b146106f25760405163387d852b60e11b815260040160405180910390fd5b6002805460ff19166001179055565b610709610f9f565b6107116104f1565b565b6000546001600160a01b0316331461073d5760405162461bcd60e51b81526004016104799061121b565b600260015414156107905760405162461bcd60e51b815260206004820152601f60248201527f5265656e7472616e637947756172643a207265656e7472616e742063616c6c006044820152606401610479565b6002600155600080546040516001600160a01b039091169047908381818185875af1925050503d80600081146107e2576040519150601f19603f3d011682016040523d82523d6000602084013e6107e7565b606091505b50509050806107f557600080fd5b5060018055565b6000546001600160a01b031633146108265760405162461bcd60e51b81526004016104799061121b565b6107116000611060565b6008818154811061084057600080fd5b6000918252602090912060029091020180546001909101546001600160a01b03909116915082565b6002805460ff168181111561087f5761087f611159565b1461089d57604051631195288d60e01b815260040160405180910390fd5b6003546040516370a0823160e01b81523360048201526001600160a01b03909116906370a082319060240160206040518083038186803b1580156108e057600080fd5b505afa1580156108f4573d6000803e3d6000fd5b505050506040513d601f19601f820116820180604052508101906109189190611250565b6109355760405163382ebd6560e11b815260040160405180910390fd5b600354604051636eb1769f60e11b81523360048201523060248201526000916001600160a01b03169063dd62ed3e9060440160206040518083038186803b15801561097f57600080fd5b505afa158015610993573d6000803e3d6000fd5b505050506040513d601f19601f820116820180604052508101906109b79190611250565b9050600081116109dd576040516001620c804b60e41b0319815260040160405180910390fd5b600a5482811415610a015760405163a7d9387960e01b815260040160405180910390fd5b60408051808201909152338152602081018481526008805460018101825560009190915291517ff3f7a9fe364faab93b216da50a3214154f22a0a2b415b23a84c8169e8b636ee3600290930292830180546001600160a01b0319166001600160a01b03909216919091179055517ff3f7a9fe364faab93b216da50a3214154f22a0a2b415b23a84c8169e8b636ee49091015580831115610afa57604080518082018252338082526020918201869052600980546001600160a01b03191682179055600a869055915191825284917fdeda60fb6e38f55d4ccab679f50f933d04b1dca8584775216dbdac46f251ca4a910160405180910390a25b80831015610b3c5760408051338152602081018590527fdd0b6c6a77960e2066c96171b4d7ac9e8b4c184011f38544afa36a5bb63ec59f910160405180910390a15b6003546040805163313ce56760e01b815290516000926001600160a01b03169163313ce567916004808301926020929190829003018186803b158015610b8157600080fd5b505afa158015610b95573d6000803e3d6000fd5b505050506040513d601f19601f82011682018060405250810190610bb991906113e4565b90506000610bc882600a611503565b610bd3906001611512565b60035460405163079cc67960e41b8152336004820152602481018390529192506001600160a01b0316906379cc679090604401600060405180830381600087803b158015610c2057600080fd5b505af1158015610c34573d6000803e3d6000fd5b505050505050505050565b3360006002805460ff1690811115610c5957610c59611159565b14610c775760405163387d852b60e11b815260040160405180910390fd5b6009546001600160a01b03828116911614610ca5576040516363968b8b60e01b815260040160405180910390fd5b600a543414610cc75760405163349fbd3d60e21b815260040160405180910390fd5b600254600654604051632142170760e11b81526001600160a01b03918216600482015283821660248201526000604482015261010090920416906342842e0e90606401600060405180830381600087803b158015610d2457600080fd5b505af1158015610d38573d6000803e3d6000fd5b50506040516001600160a01b03841692507ffbd6287d9242307b2750fc8252314857896e312d167cdbc9eed322bae8828e009150600090a250565b60016002805460ff1690811115610d8c57610d8c611159565b14610daa57604051633de0542760e11b815260040160405180910390fd5b600354604051635c9533db60e11b81523360048201526000916001600160a01b03169063b92a67b690602401602060405180830381600087803b158015610df057600080fd5b505af1158015610e04573d6000803e3d6000fd5b505050506040513d601f19601f82011682018060405250810190610e289190611531565b905080610e485760405163034eb39360e01b815260040160405180910390fd5b600b5460ff16610e6057600b805460ff191660011790555b50565b6000546001600160a01b03163314610e8d5760405162461bcd60e51b81526004016104799061121b565b6001600160a01b038116610ef25760405162461bcd60e51b815260206004820152602660248201527f4f776e61626c653a206e6577206f776e657220697320746865207a65726f206160448201526564647265737360d01b6064820152608401610479565b610e6081611060565b600480546103ce906111e0565b6000546001600160a01b03163314610f325760405162461bcd60e51b81526004016104799061121b565b6002805460ff1681811115610f4957610f49611159565b14610f6757604051631195288d60e01b815260040160405180910390fd5b600a54610f875760405163033d67f360e51b815260040160405180910390fd5b42600755600280546000919060ff19166001836104ea565b600754610fbf57604051633553558f60e01b815260040160405180910390fd5b62015180600754610fd09190611553565b421015610ff057604051632002e49160e11b815260040160405180910390fd5b60006007819055611003906008906110b0565b600b805460ff1916905560408051808201825260008082526020909101819052600980546001600160a01b0319169055600a81905590517fb29acd3a7cb5ace2405d06fbeaf3f33431934937aed74cd83be763aa291e71329190a1565b600080546001600160a01b038381166001600160a01b0319831681178455604051919092169283917f8be0079c531659141344cd1fd0a4f28419497f9722a3daafe3b4186f6b6457e09190a35050565b5080546000825560020290600052602060002090810190610e6091905b808211156110f25780546001600160a01b0319168155600060018201556002016110cd565b5090565b60005b838110156111115781810151838201526020016110f9565b83811115611120576000848401525b50505050565b60208152600082518060208401526111458160408501602087016110f6565b601f01601f19169190910160400192915050565b634e487b7160e01b600052602160045260246000fd5b602081016003831061119157634e487b7160e01b600052602160045260246000fd5b91905290565b6000602082840312156111a957600080fd5b5035919050565b6000602082840312156111c257600080fd5b81356001600160a01b03811681146111d957600080fd5b9392505050565b600181811c908216806111f457607f821691505b6020821081141561121557634e487b7160e01b600052602260045260246000fd5b50919050565b6020808252818101527f4f776e61626c653a2063616c6c6572206973206e6f7420746865206f776e6572604082015260600190565b60006020828403121561126257600080fd5b5051919050565b600080835481600182811c91508083168061128557607f831692505b60208084108214156112a557634e487b7160e01b86526022600452602486fd5b8180156112b957600181146112ca576112f7565b60ff198616895284890196506112f7565b60008a81526020902060005b868110156112ef5781548b8201529085019083016112d6565b505084890196505b509498975050505050505050565b634e487b7160e01b600052604160045260246000fd5b60006020828403121561132d57600080fd5b815167ffffffffffffffff8082111561134557600080fd5b818401915084601f83011261135957600080fd5b81518181111561136b5761136b611305565b604051601f8201601f19908116603f0116810190838211818310171561139357611393611305565b816040528281528760208487010111156113ac57600080fd5b6113bd8360208301602088016110f6565b979650505050505050565b600082516113da8184602087016110f6565b9190910192915050565b6000602082840312156113f657600080fd5b815160ff811681146111d957600080fd5b634e487b7160e01b600052601160045260246000fd5b600181815b8085111561145857816000190482111561143e5761143e611407565b8085161561144b57918102915b93841c9390800290611422565b509250929050565b60008261146f575060016114fd565b8161147c575060006114fd565b8160018114611492576002811461149c576114b8565b60019150506114fd565b60ff8411156114ad576114ad611407565b50506001821b6114fd565b5060208310610133831016604e8410600b84101617156114db575081810a6114fd565b6114e5838361141d565b80600019048211156114f9576114f9611407565b0290505b92915050565b60006111d960ff841683611460565b600081600019048311821515161561152c5761152c611407565b500290565b60006020828403121561154357600080fd5b815180151581146111d957600080fd5b6000821982111561156657611566611407565b50019056fea264697066735822122014028956ae266ed04b51f893f4fe82a99b9d13d667f30e40495c05084bd9ee3c64736f6c63430008090033a2646970667358221220a1c18d27f082d5965f9d735f611233d57646b3ed7254d5c33c5f33247162f0f764736f6c63430008090033",
  "devdoc": {
    "kind": "dev",
    "methods": {},
    "version": 1
  },
  "userdoc": {
    "kind": "user",
    "methods": {},
    "version": 1
  },
  "storageLayout": {
    "storage": [
      {
        "astId": 3749,
        "contract": "contracts/AuctionFactory.sol:AuctionFactory",
        "label": "s_auctions",
        "offset": 0,
        "slot": "0",
        "type": "t_array(t_struct(AuctionInfo)3745_storage)dyn_storage"
      },
      {
        "astId": 3754,
        "contract": "contracts/AuctionFactory.sol:AuctionFactory",
        "label": "s_auctionsMappedByName",
        "offset": 0,
        "slot": "1",
        "type": "t_mapping(t_bytes32,t_struct(AuctionInfo)3745_storage)"
      },
      {
        "astId": 3759,
        "contract": "contracts/AuctionFactory.sol:AuctionFactory",
        "label": "s_auctionNamesByAddress",
        "offset": 0,
        "slot": "2",
        "type": "t_mapping(t_address,t_array(t_bytes32)dyn_storage)"
      },
      {
        "astId": 3763,
        "contract": "contracts/AuctionFactory.sol:AuctionFactory",
        "label": "s_auctionNameTaken",
        "offset": 0,
        "slot": "3",
        "type": "t_mapping(t_bytes32,t_bool)"
      }
    ],
    "types": {
      "t_address": {
        "encoding": "inplace",
        "label": "address",
        "numberOfBytes": "20"
      },
      "t_array(t_bytes32)dyn_storage": {
        "base": "t_bytes32",
        "encoding": "dynamic_array",
        "label": "bytes32[]",
        "numberOfBytes": "32"
      },
      "t_array(t_struct(AuctionInfo)3745_storage)dyn_storage": {
        "base": "t_struct(AuctionInfo)3745_storage",
        "encoding": "dynamic_array",
        "label": "struct AuctionFactory.AuctionInfo[]",
        "numberOfBytes": "32"
      },
      "t_bool": {
        "encoding": "inplace",
        "label": "bool",
        "numberOfBytes": "1"
      },
      "t_bytes32": {
        "encoding": "inplace",
        "label": "bytes32",
        "numberOfBytes": "32"
      },
      "t_contract(Auction)3726": {
        "encoding": "inplace",
        "label": "contract Auction",
        "numberOfBytes": "20"
      },
      "t_contract(AuctionNFT)4000": {
        "encoding": "inplace",
        "label": "contract AuctionNFT",
        "numberOfBytes": "20"
      },
      "t_contract(AuctionToken)4067": {
        "encoding": "inplace",
        "label": "contract AuctionToken",
        "numberOfBytes": "20"
      },
      "t_mapping(t_address,t_array(t_bytes32)dyn_storage)": {
        "encoding": "mapping",
        "key": "t_address",
        "label": "mapping(address => bytes32[])",
        "numberOfBytes": "32",
        "value": "t_array(t_bytes32)dyn_storage"
      },
      "t_mapping(t_bytes32,t_bool)": {
        "encoding": "mapping",
        "key": "t_bytes32",
        "label": "mapping(bytes32 => bool)",
        "numberOfBytes": "32",
        "value": "t_bool"
      },
      "t_mapping(t_bytes32,t_struct(AuctionInfo)3745_storage)": {
        "encoding": "mapping",
        "key": "t_bytes32",
        "label": "mapping(bytes32 => struct AuctionFactory.AuctionInfo)",
        "numberOfBytes": "32",
        "value": "t_struct(AuctionInfo)3745_storage"
      },
      "t_struct(AuctionInfo)3745_storage": {
        "encoding": "inplace",
        "label": "struct AuctionFactory.AuctionInfo",
        "members": [
          {
            "astId": 3735,
            "contract": "contracts/AuctionFactory.sol:AuctionFactory",
            "label": "auctionCreator",
            "offset": 0,
            "slot": "0",
            "type": "t_address"
          },
          {
            "astId": 3738,
            "contract": "contracts/AuctionFactory.sol:AuctionFactory",
            "label": "auction",
            "offset": 0,
            "slot": "1",
            "type": "t_contract(Auction)3726"
          },
          {
            "astId": 3741,
            "contract": "contracts/AuctionFactory.sol:AuctionFactory",
            "label": "auctionNFT",
            "offset": 0,
            "slot": "2",
            "type": "t_contract(AuctionNFT)4000"
          },
          {
            "astId": 3744,
            "contract": "contracts/AuctionFactory.sol:AuctionFactory",
            "label": "auctionToken",
            "offset": 0,
            "slot": "3",
            "type": "t_contract(AuctionToken)4067"
          }
        ],
        "numberOfBytes": "128"
      }
    }
  }
}